:020000040000FA
:10000000F0060020E1000000FB000000790600007F
:1000100000000000000000000000000000000000E0
:10002000000000000000000000000000FF000000D1
:10003000000000000000000001010000DF0A0000D5
:10004000850600008F06000099060000A306000048
:10005000AD060000B7060000C1060000CB06000098
:100060000501000005010000D5060000DF060000C4
:10007000E9060000F3060000FD0600000707000087
:1000800011070000050100001B0700002507000004
:100090002F0700003907000043070000050100009A
:1000A0004D07000005010000570700006107000030
:1000B0006B07000005010000750700007F070000C6
:1000C0000448854600F078F800480047DD0100004C
:1000D000C046C046F006002080F308887047000044
:1000E00009480A4A002100A1814200D90244084877
:1000F00002600848804708480047FEE7FEE7FEE741
:10010000FEE7FEE7FEE70000000000200000000020
:1001100008ED00E06D0C0000C100000030B50B469A
:10012000014600202022012409E00D46D5409D42D1
:1001300005D31D469540491B254695404019154657
:10014000521E002DF1DC30BD03460B439B0703D04C
:1001500009E008C9121F08C0042AFAD203E00B788C
:100160000370401C491C521EF9D27047D2B201E004
:100170000270401C491EFBD270470022F6E710B502
:1001800013460A4604461946FFF7F0FF204610BD05
:1001900030B505462A460B4610781C78521C5B1C6D
:1001A000002801D0A042F7D0002C03D0002802D0B4
:1001B0006D1CEFE7284630BD064C0125064E05E0D4
:1001C000E36807CC2B430C3C98471034B442F7D378
:1001D000FFF77AFFFC1200001C13000010B500F0BE
:1001E00045FD00F0A9FF002010BD30B504460020F9
:1001F000651803E02178641C00F088FDAC42F9D357
:10020000002100F083FD002100F080FD30BD0000E2
:100210000449086008690007FCD548690222904338
:10022000486170470001004002480068002800D083
:10023000004770470C00002010B5012000F05AF86C
:10024000012804D100F010F8012000F02BF8002064
:1002500000F050F8012805D1002000F005F800203A
:1002600000F020F810BD000010B5044601200A4B34
:100270000A490B4A002C06D0012C0BD1CB62CA6272
:10028000886AA04304E0CB62CA62886A0222904373
:100290008862002010BD00005A5A00000000024091
:1002A000A5A5000030B5054601200F4C0F49104BA5
:1002B0006022002D0DD0012D0AD1CC62CB62086ADC
:1002C0004006C00F8301086A90431843086200206B
:1002D00030BDCC62CB62086A0B6A8006C00F400159
:1002E000934303430B62F2E75A5A000000000240B6
:1002F000A5A50000024600200549002A04D0012AD5
:1003000005D1486AC00701E0486A8007C00F7047FE
:1003100000000240F7B58AB00C4606460025FF27CC
:100320002021684609970895FFF727FF2848012CE8
:1003300002460CD0022C0AD0042C08D0062C06D081
:10034000082C04D00C2C02D004200DB0F0BD214BA1
:100350001E60016A01235B0299430C9BDB079B0D26
:100360001943016269461C4EAB00F6586D1C66438A
:10037000CE50082DF7D30C26184B194D082C0BD056
:100380000C2C0FD0C362C562046AB443046200241B
:10039000FF23A600099310E0C362C562046AB44358
:1003A000241DF3E70197F7E7099D6D1E09950DD30D
:1003B0000A4BC3620A4BC362975193598F59BB4290
:1003C000F2D1641C082CE3D30898BEE70720BCE7F1
:1003D000000002400C000020841200005A5A000065
:1003E000A5A50000F8B5FF22254900270092884204
:1003F00001D90420F8BD234903E0009B5C1E009452
:100400003CD30B6ADB06F8D41F4B204C00920AE069
:10041000009E761E009631D3CB62CC620D6AAD0889
:10042000AD00AD1C0D620D6AAD07AD0F022DEFD111
:10043000009208E0009E761E00961FD3CB62CC622D
:100440000025ED430D630D6B6D1CF3D1057000921B
:1004500003E00098461E009610D3086AC006F8D440
:10046000009206E00098421E009207D3CB62CC6255
:100470000D63086B0028F5D13846F8BD0920F8BD9A
:10048000FFFF0000000002405A5A0000A5A500002E
:10049000F8B58C46FF23274900270093884201D9ED
:1004A0000420F8BD244A03E000994C1E00943ED37A
:1004B000116AC906F8D4214C214D00930AE0009E30
:1004C000711E009133D3D462D562166AB608B600A5
:1004D000761C1662166AB607B60F012EEFD100938E
:1004E00008E0009E711E009121D3D462D5620026DF
:1004F000F6431663166B761CF3D1614601600093D8
:1005000003E00098411E009111D3106AC006F8D490
:100510000021009306E00098431E009307D3D462A5
:10052000D5621163106B0028F5D13846F8BD09205B
:10053000F8BD0000FFFF0000000002405A5A000012
:10054000A5A5000030B5224BC318DD6801248C40FE
:10055000A543DD60890008181E4900254018056084
:1005600010780128186824D0A0431860507800281B
:10057000D86920D02043D861907801281DD0022866
:10058000186A1DD0A0431862586AA0435862D078F8
:100590000028D86A19D02043D8620F4988680123FF
:1005A0001279DB03D2079843120C104388600020B5
:1005B00030BD2043D9E7A043DDE7186A2043E2E7D6
:1005C000A0431862586A2043E0E7A043E4E7000034
:1005D000000D0240000C0240000F02408900081884
:1005E000024940180260002070470000000C0240E1
:1005F00002480169022291430161704700E000E076
:1006000001B5044908680A68009B121A9A42FAD395
:1006100008BD000004000020014800687047000089
:100620000400002002480168491C01607047000076
:100630000400002010B50C487D21C9000068FFF7B8
:100640006DFD0A49401E88420CD809494861094895
:100650000722C3691B021B0A4C042343C361002009
:1006600088610A6110BD000000000020FFFFFF004C
:1006700000E000E004ED00E008B500200090002854
:10068000FDD008BD10B50020C046C04610BD10B555
:100690000120C046C04610BD10B50220C046C0466D
:1006A00010BD10B50320C046C04610BD10B50020D7
:1006B000C046C04610BD10B50020C046C04610BDA3
:1006C00010B5002000F0EEFA10BD10B5012000F0CA
:1006D000E9FA10BD10B50020C046C04610BD10B5E7
:1006E0000120C046C04610BD10B50020C046C0461F
:1006F00010BD10B50120C046C04610BD10B5002089
:10070000C046C04610BD10B50120C046C04610BD51
:1007100010B50220C046C04610BD10B50420C0462A
:10072000C04610BD10B50520C046C04610BD10B56E
:100730000620C046C04610BD10B50020C046C046C9
:1007400010BD10B50020C046C04610BD10B5002039
:10075000C046C04610BD10B50020C046C04610BD02
:1007600010B50120C046C04610BD10B50020C046DF
:10077000C04610BD10B50020FFF756FD10BD10B5E6
:100780000020C046C04610BDF3B50024104F81B014
:100790002646254639460298FFF7C0FC019A3030BC
:1007A000105502910A213846641CFFF7B7FC074632
:1007B000019800192038C07F302801D1002E04D0C4
:1007C000761C6D1C0A2DE5D3FEBD0024F9E7000060
:1007D00000CA9A3B10B500F077F810BDF7B582B0AB
:1007E00000240C600F46064601216846049A00F07A
:1007F00003FD0546012821D168460078182821D03C
:1008000006DC01280CD002280CD0042806D142E0D6
:10081000412803D0612801D0722822D000253AE077
:10082000802401E00124A4023070211DB01C049A30
:1008300000F0E2FC054601282FD000243C60284649
:1008400005B0F0BD01216846049A00F0D5FC0128EE
:1008500003D168460078182801D0002519E0022449
:1008600019E001216846049A00F0C6FC012810D165
:100870006846007873280ED101216846049A00F07A
:10088000BBFC012805D168460078742803D100F02C
:1008900045FC684600783070D0E7F078B178FF22E8
:1008A000504081420DD13019017940790902401838
:1008B00001902146301DFFF798FC014601988142C6
:1008C000BCD000242546B9E71FB500200090019058
:1008D0000290039003A800F02BFA002807D0052807
:1008E00025D0042825D0022827D015A022E01C48B6
:1008F00000F090F81B4800F08DF868460399FFF768
:1009000043FF19A000F086F8684600F083F819A0AC
:1009100000F080F81AA000F07DF800F043FBFFF72C
:1009200067FE72B60720800200F0E2FB1FBD1AA02E
:1009300000E029A000F06EF81FBD2EA0FAE700002D
:100940000A0D4661696C656420746F207265636589
:10095000697665207468652066696C65210A0D00FA
:10096000A41200003C0000200A0D2053697A653A69
:10097000200000002042797465730D0A0000000019
:100980002D2D2D2D2D2D2D2D2D2D2D2D2D2D2D2D97
:100990002D2D2D0A000000000A0A0D5468652069FB
:1009A0006D6167652073697A65206973206869677E
:1009B000686572207468616E2074686520616C6C73
:1009C0006F776564207370616365206D656D6F720C
:1009D00079210A0D000000000A0A0D566572696649
:1009E00069636174696F6E206661696C6564210A70
:1009F0000D0000000D0A0A41626F72746564206286
:100A00007920757365722E0A0D00000010B500F094
:100A100047FB10BD10B5002101E0491C89B2425CC2
:100A2000002AFAD100F02EFB10BDF0B505460024D7
:100A30002B7820462246302B2CD16B78782B01D096
:100A4000582B27D102241AE01E46413E052E06D916
:100A50001F46613F052F02D93137092F13D81F4692
:100A60001201303F092F01D83B4604E0052E01D882
:100A7000373B00E0573BD218641C0B2C04D22B5D93
:100A8000002BE1D103E000202B5D002B01D10120E0
:100A90000A60F0BD2B5D002B0ED06B2B01D04B2BD1
:100AA00003D1002C01D0920206E06D2B01D04D2B1A
:100AB00005D1002C03D0120501200A6007E01E4674
:100AC000303E092E09D80A267243303A9A18641C1F
:100AD0000B2CDED20128DDD1F0BD0020F0BD00B529
:100AE000FFF7A0FD00BD000010B58AB0002414225D
:100AF000484904A8FFF728FB4648001F00680990F2
:100B000000200190029003904348028869468A8140
:100B100042884A8182880A81C088C8803E48203045
:100B2000008888803D48016809064A0F3C49130047
:100B300000F0CCF905042A2C383B6800C1686A46ED
:100B400049059289490D914201D1089C5AE0C1683A
:100B50006A4649055289490D914201D1079C51E0ED
:100B6000C1686A4649051289490D914201D1069C26
:100B700048E0C1686A464905D288490D914201D1D1
:100B8000059C3FE0049C3DE00C463BE069468988BB
:100B900042699205920D9142694601D1CC8C31E0B7
:100BA0008C8C2FE00124E4032CE0C26BD24392072B
:100BB00024D169468989C2685205520D914201D1FA
:100BC00008991BE069464989C2685205520D914255
:100BD00001D1079912E069460989C2685205520D90
:100BE000914201D1069909E06946C988C268520557
:100BF000520D914201D1059900E00499C26BD205D2
:100C0000140F4C4300680AB04005410F2046C8400D
:100C100010BD000070120000000C10000020004009
:100C20000048E80110B5FFF75FFF03490968C904F0
:100C3000890FC84010BD00000020004010B50446D8
:100C400001230020044AA3400029116A01D019435E
:100C500000E09943116210BD0020004010B5FFF77D
:100C600043FF0149086010BD0000002010B50B488B
:100C7000408881050A48890D4269920A92020A4316
:100C80004261064920390989C2684905490DD20ADD
:100C9000D2020A43C260FFF7E1FF10BD200C100032
:100CA0000020004010B5164801690023CA07154905
:100CB000002A0FD0426952085200426100F0F6F853
:100CC000114C0A88A054521C90B208800A2800D304
:100CD0000B8010BD012080070269D207F9D042695C
:100CE00052085200426100F0D3F8074C4A880A3497
:100CF000A054521C90B248800A28EAD34B8010BD01
:100D0000000100401000002028000020074AFF31A9
:100D1000013140004900CB0500D5401CC30300D57C
:100D20005040CB03F5D580B2704700002110000081
:100D3000F1B5002790B007205049800208973D4642
:100D40003C46086092E0002006460B908AE04C4A40
:100D50000CA94C48FFF742FD01280AD0089800284A
:100D600000D06D1C052D7AD91820FFF74FFE1820F2
:100D700076E00C9A0025002A0ED0022A07D04149BD
:100D80000B988B78C0B283420BD0152068E0062008
:100D9000FFF73CFE022465E00620FFF737FE012640
:100DA00060E00B9800280CD034480068091D00F062
:100DB000B8F8324800680C994118304801600620A4
:100DC0003EE00879002844D000202F4B091D02E0A6
:100DD0001A54401C491C0A78002A01D04028F7D335
:100DE00000221A54104604AB01E01A54401C491C5E
:100DF0000A78202A01D01028F7D3002119540DA910
:100E00001846FFF712FE10982049006888420BD957
:100E1000182069460872012102A800F033F9012167
:100E200002A800F02FF9052407207221800200F0AB
:100E300099F810980D9901600620FFF7E7FD43200F
:100E4000FFF7E4FD0B98401C0B900120089009E08F
:100E500005E00620FFF7DAFD0126374602E04320D1
:100E6000FFF7D4FD3046204300D170E738462043D9
:100E700000D168E7204611B0F0BD0000140000204A
:100E8000881300007C0000203C00002001E40000EA
:100E9000012080070068C0B2704700000248006966
:100EA0008007C00F70470000000100400148006843
:100EB000C0B270470001004010B5024A024900F07C
:100EC00021F810BDD71000000800002030B474468F
:100ED000641E2578641CAB4200D21D46635D5B0036
:100EE000E31830BC184702E008C8121F08C1002AE6
:100EF000FAD170477047002001E001C1121F002A9B
:100F0000FBD17047F8B516460F460446002503E0AE
:100F10003946B047641C6D1C20780028F8D128465B
:100F2000F8BDF8B500240E460546002A19D09007F2
:100F300002D092089200121D970810E0A000315CC8
:100F40008219507800020843917809040143D0784F
:100F500000060143284600F013F8641C2D1DA7422B
:100F6000ECD8F8BD70B50D460646002404E06002DA
:100F70008019FFF737FA641CAC42F8D3012070BD2A
:100F800070B504460D46800709D12046FFF780FA68
:100F9000002804D12068A84201D1012070BD0020A2
:100FA00070BD00001CB50521684600F08BF80121DA
:100FB0001C20FFF743FE0124684604706A460221A4
:100FC0000020FFF7BFFA684604706A46032100203C
:100FD000FFF7B8FA04484168102291434160416824
:100FE000A14341601CBD0000000100401CB505216B
:100FF000684600F067F801211C20FFF71FFE002162
:10100000684601706A4602210020FFF79BFA012220
:1010100002210020FFF7E2FA0121684601706A46CA
:1010200003210020FFF78EFA012203210020FFF7A1
:10103000D5FA01210846FFF701FE114C6068C02176
:10104000884340306060606809028843606060687F
:10105000611508436060FFF7E5FD61688905C90F08
:101060000BD008214B22D2015143FFF757F8A06162
:1010700060681021084360601CBD1021F2E7000089
:101080000001004030B50C460546002304E0E85C52
:1010900000F006F85B1C9BB2A342F8D330BD000001
:1010A00000B507490A68120A120202430A60FFF7F4
:1010B000F5FE0028FBD0486902229043486100BD3C
:1010C00000010040002805D00022491E02D3027012
:1010D000401CFAE77047034600B5C0B20A2802D1A7
:1010E0000D20FFF795F8D8B2FFF792F8184600BD2B
:1010F00010B50168074A114001225207914207D1F9
:101100004168054C21600068FEF7E6FF20688047D3
:1011100010BD00000000FE2F1800002072B6BFF3C3
:101120004F8F04490248C860BFF34F8F00BFFDE7EF
:101130000400FA0500ED00E00122002411460D48EC
:10114000FFF7E8F8FFF776FAFFF750FF62B61420D2
:10115000FFF756FAFFF73EFB1420FFF751FA00F0B5
:1011600073F8641CA4B2FA2CF6D3002402A0FFF793
:10117000A3FEF1E739020000626F6F7420776169A6
:10118000742E2E2E0D0A000010B5FFF7C7FF10BDFC
:10119000F8B5164D144F28463A8808302A6014498D
:1011A0000090FEF7D1FF134E0024E0003158009864
:1011B000FEF7EEFF002807D0288881B2E0008019F2
:1011C00042680098904703E0641C2406240EECD08B
:1011D0006C210648FEF7D1FF0A210548FEF7CDFF36
:1011E00000203880F8BD000010000020840400209A
:1011F0002800002020000020F7B582B016460F46D8
:10120000FFF70AFA00240F4D009016E0002E05D0DB
:10121000FFF702FA0099401AB04202D9002005B047
:10122000F0BD2869C007F1D06869400840006861D6
:10123000286802990855641CA4B2BC42F1D301206D
:10124000EDE700000001004070B506480488002C5E
:1012500006D0054D2888844201D1FFF799FF2C80E4
:1012600070BD0000100000201C00002000800096CF
:1012700000093D0000127A000024F400408651016C
:1012800000366E0120000000170000001B00000067
:1012900050460000E022020018000000F0000000AC
:1012A000E80300000A0A0D2050726F6772616D6DCD
:1012B000696E6720436F6D706C657465642053754B
:1012C000636365737366756C6C79210A0D2D2D2D22
:1012D0002D2D2D2D2D2D2D2D2D2D2D2D2D2D2D2D3E
:1012E0002D2D2D2D2D2D2D2D2D2D2D2D2D0D0A207E
:1012F0004E616D653A200000727374001C1300008B
:101300000000002028000000E60E0000441300004A
:1013100028000020C8060000F60E000000093D006D
:1013200000000000000000000000000000000000BD
:10133000000000000000000000000000F8120000A3
:04134000891100000F
:04000005000000C136
:00000001FF
