:020000040000FA
:101C0000F0020020D51C0000EF1C00001121000094
:101C100000000000000000000000000000000000C4
:101C2000000000000000000000000000F31C0000A5
:101C30000000000000000000F51C0000F71C000080
:101C4000212100002B210000352100003F21000050
:101C500049210000532100005D21000067210000A0
:101C6000F91C0000F91C0000712100007B2100001C
:101C7000852100008F21000099210000A321000090
:101C8000AD210000F91C0000B7210000C1210000B7
:101C9000CB210000D5210000DF210000F91C00004D
:101CA000E9210000F91C0000F3210000FD210000E3
:101CB00007220000F91C0000112200001B22000076
:101CC0000348854600F08EF800480047091E0000D2
:101CD000F002002009480A4A002100A1814200D9EF
:101CE0000244084802600848804708480047FEE769
:101CF000FEE7FEE7FEE7FEE7FEE70000000000204B
:101D0000001C000008ED00E071280000C11C00006C
:101D100030B50B46014600202022012409E00D4683
:101D2000D5409D4205D31D469540491B254695400B
:101D300040191546521E002DF1DC30BD70B500244F
:101D40002546002801DA01244042002901DA012554
:101D50004942FFF7DDFFAC4200D04042002C00D0EA
:101D6000494270BD03460B439B0703D009E008C9F5
:101D7000121F08C0042AFAD203E00B780370401C3B
:101D8000491C521EF9D27047D2B201E00270401CC9
:101D9000491EFBD270470022F6E710B513460A46EB
:101DA00004461946FFF7F0FF204610BD30B5054642
:101DB0002A460B4610781C78521C5B1C002801D068
:101DC000A042F7D0002C03D0002802D06D1CEFE712
:101DD000284630BD421C0178401C0029FBD1801AE6
:101DE00070470000064C0125064E05E0E36807CC6D
:101DF0002B430C3C98471034B442F7D3FFF764FFF1
:101E0000D0300000F030000010B500F031FD01F0DE
:101E1000A7F8002010BD000010B504463948006B3B
:101E20000007C00F00280CD037488068002802D077
:101E30003549886880473348406B082188433149D9
:101E400048633048006B4007C00F00280CD02E4874
:101E5000C068002802D02C49C86880472948406BD8
:101E600004218843274948632648006B8007C00F38
:101E700000280CD024480069002802D022490869B3
:101E800080472048406B022188431E4948631D4813
:101E9000006BC007C00F00280CD01B484069002809
:101EA00002D01949486980471648406B40084000F5
:101EB000144948631348006BC006C00F00280CD0BB
:101EC00011484068002802D00F49486880470D48F3
:101ED000406B102188430B4948630A48006B800619
:101EE000C00F00280CD008480068002802D006491E
:101EF000086880470348406B2021884301494863B4
:101F000010BD000080240040300000200749086018
:101F100000BF064909690907C90F0029F9D003491B
:101F2000496902229143014A516170470001004012
:101F300010B5044603480068002802D00148006834
:101F4000804710BD0C00002001460020144A126A90
:101F5000520052080123DB07D218114B1A62114AB2
:101F6000114BDA62114ADA62002906D11A46126A66
:101F70000C239A430C4B1A6210E0012907D10A4A3C
:101F8000126A0C239A43121D074B1A6206E0064A96
:101F9000126A0C239A430832034B1A6270470000FE
:101FA000002000405A5A000000000240A5A5000091
:101FB00030B503464E481818C06801248C40A04331
:101FC0004B4C1C19E06000204A4C1C198D006051DC
:101FD0001078012809D146481818006801248C405F
:101FE0002043434C1C19206008E041481818006841
:101FF00001248C40A0433E4C1C19206050780028DE
:1020000009D13B481818C06901248C40A043384CC2
:102010001C19E06108E036481818C06901248C409A
:102020002043334C1C19E0619078012812D13048CC
:102030001818006A01248C4020432D4C1C19206282
:102040002B481818406A01248C40A043284C1C19C6
:10205000606227E09078022812D125481818006A9B
:1020600001248C40A043224C1C19206220481818DF
:10207000406A01248C4020431D4C1C19606211E011
:102080001B481818006A01248C40A043184C1C19E6
:10209000206217481818446A012088408443144875
:1020A00018184462D078002809D111481818C06A5D
:1020B00001248C40A0430E4C1C19E06208E00C483F
:1020C0001818C06A01248C402043094C1C19E06296
:1020D000094880680124E403A0431479E40301253E
:1020E000ED032C402043044CA060002030BD0000D4
:1020F000000D0240000C0240000F024010B50346E4
:10210000024818188C000251002010BD000C02403B
:1021100008B50020009000BF00980028FCD008BD42
:1021200010B50020C046C04610BD10B50120C04605
:10213000C04610BD10B50220C046C04610BD10B547
:102140000320C046C04610BD10B50020C046C046A2
:1021500010BD10B50020C046C04610BD10B500200F
:1021600000F0A6FB10BD10B5012000F0A1FB10BDD2
:1021700010B50020C046C04610BD10B50120C046B5
:10218000C04610BD10B50020C046C04610BD10B5F9
:102190000120C046C04610BD10B50020C046C04654
:1021A00010BD10B50120C046C04610BD10B50220BC
:1021B000C046C04610BD10B50420C046C04610BD84
:1021C00010B50520C046C04610BD10B50620C0465B
:1021D000C04610BD10B50020C046C04610BD10B5A9
:1021E0000020C046C04610BD10B50020FFF714FE09
:1021F00010BD10B50020C046C04610BD10B501206E
:10220000C046C04610BD10B50020C046C04610BD37
:1022100010B50020FFF78CFE10BD10B50020C046A1
:10222000C04610BD08B50020FFF78EFE002000F06C
:1022300031FA0021684601704170817000F019F890
:10224000002000F087FA0121022000F047F8022068
:1022500000F0C8FA022000F01DFA0121002000F071
:102260003DF8002000F0BEFA0021022000F036F810
:1022700008BD70B5044600252078030000F0B0FBCF
:102280000504050C10181C0018E0032000F0C0FA2B
:10229000032000F087FA11E0032000F049FA0DE076
:1022A0000321084600F0C2FA032000F08BFA05E093
:1022B000072000F0BFF901E0042500BF00BF20782F
:1022C000012100F00BF8207800F08CFA607800F023
:1022D00085F9A07800F098F9284670BDF8B5054654
:1022E0000C46002700F034FB002C01D0012000E058
:1022F000002004462B0000F073FB050417394D74D1
:102300009C004E48006840084000E107C90F0843A0
:102310004A49086000BF002C05D04848C068000545
:10232000C00F0028F7D086E04548C068400840004C
:10233000401C4349C8600846C06802218843801C8D
:102340003F49C8603D48006802218843610002227D
:10235000114008433949086000BF002C05D03748B8
:1023600000694006C00F0028F7D064E033480068D9
:1023700004218843A1000422114008432F4908602A
:1023800000BF002C05D02D484069C004C00F0028B4
:10239000F7D050E02A484038C068012189038843BB
:1023A000401827494039C8600846C0680121C90360
:1023B0008843401822494039C860204800680821F5
:1023C0008843E1000822114008431C49086000BF0F
:1023D000002C05D0194880694006C00F0028F7D0AE
:1023E00029E01648066A006A01210904884340185A
:1023F000124908621348006840084000401C114917
:102400000860022000F098FC0C4806620068102169
:10241000884321011022114008430849086000BF89
:10242000002C05D00548C06B4003C00F0028F7D032
:1024300001E0042700BF00BF3846F8BD002000407F
:10244000C00D02400024004030B589B000241422A1
:10245000564904A8FFF786FC5448143000680390DE
:102460000020009001900290514801886846018147
:102470004F4841886846C1804D48818868468180C0
:102480004B48C188684641804948203001886846E9
:102490000180484800680006450F2B0000F0A0FAB4
:1024A00005042E303E4178004248C0684005400D8A
:1024B00069460989884201D1089C1EE03D48C068F0
:1024C0004005400D6946C988884201D1079C14E047
:1024D0003848C0684005400D69468988884201D166
:1024E000069C0AE03348C0684005400D69464988AB
:1024F000884201D1059C00E0049C4BE02E4C49E051
:10250000684600882B4949698905890D884202D1AE
:102510006846C48901E0684684893BE00124E403FD
:1025200038E02448C06B8007800F032829D1684613
:1025300000892049C9684905490D884201D1089C94
:1025400020E06846C0881B49C9684905490D884292
:1025500001D1079C16E0684680881649C96849057C
:10256000490D884201D1069C0CE06846408811491B
:10257000C9684905490D884201D1059C02E0049CC7
:1025800000E00D4C0B48C06BC005000F444301E058
:10259000002400BF00BF074800684005410F2046E7
:1025A000C8400446204609B030BD00009430000009
:1025B000000C1000002000400048E80110B5002485
:1025C000FFF742FF044604480068C004810F20461C
:1025D000C8400446204610BD0020004070B50446A7
:1025E000002500F0B5F90748006807210902884373
:1025F00021020722120211400843024908602846BE
:1026000070BD00000020004070B50446002500F0B9
:102610009FF9074800680321C9028843E1020322A9
:10262000D2021140084302490860284670BD0000EC
:102630000020004010B501460020064AD26B072357
:10264000DB039A43CB030724E40323401A43014BE3
:10265000DA6310BD0020004010B5024600200029BA
:1026600001D0012300E000231946002907D0084BC0
:102670001B6A012494402343054C236206E0044B6B
:102680001B6A01249440A343014C236210BD000047
:102690000020004010B5014600200B0000F0A0F91A
:1026A0000504101C283440001F4B1B895A05520D8D
:1026B0001E4BDB68DB0ADB0213431C4CE36031E09A
:1026C000194BDB885A05520D184BDB68DB0ADB021D
:1026D0001343164CE36025E0134B9B885A05520DBB
:1026E000124BDB68DB0ADB021343104CE36019E09A
:1026F0000D4B5B885A05520D0C4BDB68DB0ADB0285
:1027000013430A4CE3600DE0074B1B885A05520D3A
:10271000064BDB68DB0ADB021343044CE36001E099
:10272000042000BF00BF10BD000C100000200040BE
:1027300010B501460020064A526903239B029A43C2
:102740008B020324A40223401A43014B5A6110BD9B
:102750000020004010B501460020002902D00129C8
:1027600018D10BE00D4B5B889A05920D0C4B5B6901
:102770009B0A9B0213430A4C63610DE0074B1B88C5
:102780009A05920D064B5B699B0A9B021343044C0E
:10279000636101E0042000BF00BF10BD200C1000E9
:1027A0000020004010B501460020054A1269302380
:1027B0009A430B01302423401A43014B1A6110BD88
:1027C0000020004010B501460020054A92693023E0
:1027D0009A430B01302423401A43014B9A6110BDE8
:1027E0000020004070B504460025264600F0B0F8F1
:1027F00006480068E02188437101E0221140084347
:102800000249086000F02CF8284670BD0020004006
:1028100001460020044A1269920892008B079B0F20
:102820001A43014B1A6170470020004030B5024640
:1028300000200A4B9B690C24A34394000C252C40D8
:102840002343064CA36123469B699B089B008C078E
:10285000A40F2343014CA36130BD000000200040C1
:1028600010B5FFF7F1FD0149086010BD0000002020
:1028700010B50D4949888805800D0C494969890AB8
:1028800089020143094A51610749203909894805EC
:10289000400D1146C968C90AC9020143D160FFF75A
:1028A000DFFF00F053F810BD200C100000200040A6
:1028B00010B50246002120480069C007C00F00285B
:1028C00018D01D484069400840001B4B586100F07B
:1028D0005DF80146194803880088401C174C208089
:1028E0001748C15420460088322824DB00202346A4
:1028F000188020E0012080070069C007C00F002871
:1029000019D00120800740694008400001239B073F
:10291000586100F029F801460A4803880088401CE5
:10292000084C20800848C154204600880A2802DB51
:1029300000202346188010BD000100401000002038
:1029400048000020120000207A000020704700009C
:102950000248034988600348886070475A5A00005B
:1029600000200040A5A50000012080070068C0B23B
:10297000704700000020044909698907C90F012236
:10298000514051400846704700010040014800682E
:10299000C0B27047000100400FB410B503A9044B4A
:1029A000044A029800F091F810BC08BC04B0184723
:1029B000092E0000080000200FB410B504A9074B31
:1029C00002AA039800F081F8044602A9002000F052
:1029D000E5F8204610BC08BC04B018479D2B000049
:1029E00030B47446641E2578641CAB4204D3635D26
:1029F0005B00E31830BC18471D46F8E7002805DBEC
:102A0000C206D20E01219140014A116070470000B8
:102A100080E200E0002809DB00BF00BFC206D20E42
:102A200001219140024A116000BF00BF70470000C1
:102A300000E100E010B5002819DB1A4A03231B024D
:102A4000D21883089B00D2588307DC0EFF23A340D3
:102A50009A438B071B0E8407E40EA3401A43114BC5
:102A6000032424021B198408A4001A5118E00E4AFA
:102A700003071B0F083B9B089B00D2588307DC0E03
:102A8000FF23A3409A438B071B0E8407E40EA34049
:102A90001A43054B0407240F083CA408A4001A514C
:102AA00010BD000000E100E01CED00E002E008C8FD
:102AB000121F08C1002AFAD170477047002001E0B8
:102AC00001C1121F002AFBD17047FFB581B0054636
:102AD000002706E025280AD0049A039990476D1C28
:102AE0007F1C28780028F5D1384605B0F0BD0022BB
:102AF00069786D1C10462E2913D1697804226D1C4B
:102B00002A2909D102996D1C01C9029109E00A2301
:102B10005843303808186D1C29780B46303B092B78
:102B2000F5D92B78002BDFD0632B07D0732B10D077
:102B3000049A1846039990477F1C2DE002996C4631
:102B40000B782370091D0291002161706E460121EE
:102B500004E0029940C902910021C94352070AD5F5
:102B6000002400E0641C84420DDA8C42FADB325D02
:102B7000002AF7D107E0002400E0641C8C42FCDB53
:102B8000305D0028F9D13F1904E03078049A761CB2
:102B900003999047641EF8D26D1CA2E70A68531C83
:102BA0000B601070704710B5FFF73CFB102000F071
:102BB000F1F800F027F862B610BD1CB50521684693
:102BC00000F0AAF801211C20FFF746FD002168460D
:102BD00001706A4602210020FFF7EAF90122022172
:102BE0000020FFF78BFA0121684601706A46032135
:102BF0000020FFF7DDF9012203210020FFF77EFA14
:102C00001CBD000070B500240025FFF7D6FF012190
:102C10000846FFF721FD22484068C0218843403024
:102C20001F494860084640680321890388431C49BE
:102C3000486007263046FFF7E1FE03213046FFF7E4
:102C4000F9FE3046FFF7E6FE1548406801214902CB
:102C50008843401812494860FFF7B0FC05462946F2
:102C60004B20C00100F0ACF904460D488461406976
:102C7000022188430A4948610846406940084000EB
:102C80004861084640681021884310300449486074
:102C90000846406840084000401C486070BD000085
:102CA0000001004070B505460E46002400BF04E058
:102CB000285D00F005F8601C84B2B442F8DB70BDFA
:102CC00000B5034609480068000A0002D9B208436B
:102CD0000649086000BFFFF74DFE0028FBD00348FF
:102CE0004069022188430149486100BD000100405C
:102CF00010B56C210548FFF74EF832210448FFF764
:102D00004AF800200349088010BD0000840000201C
:102D1000480000201000002010B50A460146002996
:102D200000D110BD02E000230B70491C1346521E57
:102D3000002BF8D100BFF4E770B5054611481249E1
:102D4000486100208861052008610FE000200E49DD
:102D500088610E490E480068FEF7DAFF0121090676
:102D60000C1A00BF08488069A042FBD828466D1E97
:102D70000028EBD10448006940084000024908617E
:102D800070BD0000FFFFFF0000E000E0A086010032
:102D90000000002001490870704700000400002076
:102DA00030B50446002504E07D20C00000F004F8A2
:102DB0006D1CA542F8D330BD0146114A12784A4332
:102DC000104B5A6100229A611A46126905231A4370
:102DD0000C4B1A6100BF0B4A1069C207D20F002AC0
:102DE00004D0012212040240002AF4D0054A1269DC
:102DF00052085200034B1A6100229A61704700008A
:102E00000400002000E000E010B503460C46D8B2F4
:102E10000A2802D10D20FFF779F8D8B2FFF776F82B
:102E2000184610BD70B58EB005460E46342101A877
:102E3000FEF7B1FF07A30BA20CA101A8FFF7BCFD91
:102E400001A8FEF7C7FF84B2214601A800F0F4F8FC
:102E50000EB070BD48433332463033304A385441A7
:102E60000000000056302E30310000006765745FAE
:102E70006465766963655F76657273696F6E3D251B
:102E80007320282573290D0A0000000010B500F0FA
:102E900013F80649086000F00BF804460348214681
:102EA00002680830FEF75EFF10BD000084000020BD
:102EB0000048704748000020014800887047000023
:102EC00010000020F0B58DB006460F46342168464C
:102ED000FEF761FF13A16846FFF76EFD6846FEF737
:102EE00079FF84B22146684600F0A6F8002414E079
:102EF00034216846FEF74FFFE0000D490A580DA146
:102F00006846FFF759FD6846FEF764FF85B229461B
:102F1000684600F091F8601CC4B2032CE8D30DB0F1
:102F2000F0BD0000636D64206C6973743A0D0A0093
:102F30001400002025730D0A0000000072B600BFC7
:102F4000BFF34F8F04480549C860BFF34F8F00BFE0
:102F500000BF00BFFDE700000400FA0500ED00E03F
:102F60000024FFF720FE0CA0FFF716FD12E00A2058
:102F7000FFF716FF601C84B205212046FEF7DEFE37
:102F8000002901D100F074F8642C03DB002406A0B2
:102F9000FFF702FDEBE700000D0A20656E74657215
:102FA000206170700D0A000072756E2E2E2E0D0AB3
:102FB0000000000070B504460D46FFF7BFFF70BD6E
:102FC000F8B504460D4600270026094840688005EC
:102FD000C60F002E01D1102600E0082620467043BF
:102FE00001462846FEF794FE07463846F8BD000025
:102FF0000001004070B5002415E0E0000C4A1158B3
:103000000C48FEF7D3FE0546002D0AD009480838C3
:10301000008881B2E000064BC0184268054890471E
:1030200070BD601CC4B2032CE7D300BFF8E70000FA
:10303000140000208C00002070B505460C46224686
:1030400029460648FEF78EFE04483A3844608088D8
:1030500081B20248FFF726FE70BD0000BE000020CE
:1030600010B5FFF713FFFFF7C5FFFFF741FE10BDD7
:1030700010B5FFF721FF0446002C07D00448008854
:10308000844201D1FFF7ECFF0148048010BD00002D
:103090002C00002000093D0000127A000024F400FA
:1030A0004086510100366E01008000966765745FAE
:1030B0006465766963655F76657273696F6E00003B
:1030C00068656C70000000007265626F6F740000CC
:1030D000F03000000000002030000000AC2A0000AA
:1030E0002031000030000020C0020000BC2A000097
:1030F00000093D000000000000000000000000008A
:1031000000000000C0300000C52E0000C8300000E4
:10311000B52F0000AC300000252E0000000000009C
:0400000500001CC11A
:00000001FF
