:020000040800F2
:10000000481100204D01000815080008D10400081F
:1000100013080008D9010008410D00080000000085
:10002000000000000000000000000000730900084C
:10003000050200080000000017080008CD0B0008AA
:1000400067010008670100086701000867010008F0
:1000500067010008670100086701000867010008E0
:1000600067010008670100086701000867010008D0
:1000700067010008670100086701000867010008C0
:1000800067010008670100086701000867010008B0
:1000900067010008670100086701000867010008A0
:1000A0006701000867010008670100086701000890
:1000B0006701000867010008670100086701000880
:1000C0006701000867010008670100086701000870
:1000D00067010008750C0008CD0C000867010008D6
:1000E0006701000867010008670100086701000850
:1000F0006701000867010008670100086701000840
:10010000670100086701000867010008670100082F
:10011000670100086701000867010008670100081F
:10012000670100086701000867010008670100080F
:10013000DFF80CD000F03EF8004800471511000829
:100140004811002080F30888704700000648804767
:1001500006480047FEE7FEE7FEE7FEE7FEE7FEE7AC
:10016000FEE7FEE7FEE7FEE7710C0008310100083C
:10017000202A04DB203A21FA02F00021704721FAFC
:1001800002F3D040C2F12002914008431946704763
:10019000D2B201E000F8012B491EFBD270470022C9
:1001A000F6E710B513460A4604461946FFF7F0FF76
:1001B000204610BD064C074D06E0E06840F0010304
:1001C00094E8070098471034AC42F6D3FFF7B4FF29
:1001D000E411000804120008FEE7000030B50446F0
:1001E0000020651804E000BF14F8011B00F098FD22
:1001F000AC42F9D3002100F093FDBDE8304000216E
:1002000000F08EBD7047000006490020C861064816
:10021000016941F004010161016941F0400101619E
:10022000704700001800002000200240064A00210C
:10023000D16106490A6942F002020A61486108690F
:1002400040F0400008617047180000200020024084
:10025000044B0022DA61044A136943F0010313617D
:10026000018070471800002000200240144800223E
:10027000C168CB06134904D5CA6942F00202CA61BB
:100280001022C3685B0705D5CB6943F00103CB613E
:1002900042F00402C369DB0707D0CB6943F00403D3
:1002A000CB61C16921F00101C161A2F58071013901
:1002B00001D0C2607047C16921F00101C16170477E
:1002C000002002401800002070B5054600F0E0F85C
:1002D0000646114C09E0681C07D025B100F0D8F89B
:1002E000801BA84201D9032070BDE068C007F2D18D
:1002F000E068800601D52020E060E068C00605D4F3
:10030000E069C00702D1E068400703D5FFF7AEFF00
:10031000012070BD002070BD002002404FF0E020A1
:10032000016921F002010161704700002DE9F047E9
:10033000054626480F460126017E01290FD00121DE
:10034000814601762868DFF888804CF25034022814
:1003500008D0A2462046FFF7B7FFA8B131E002203F
:10036000BDE8F0872046FFF7AFFF08BB0120FFF78D
:100370004BFF2046FFF7A8FFD8F81010064621F0E3
:100380000401C8F810101CE04FF0FF303860AC6872
:1003900011E02046FFF74AFF5046FFF795FFD8F8D7
:1003A0001010060021F00201C8F8101001D03C60C6
:1003B00007E004F50064D5E9020100EBC120A0428A
:1003C000E7D8002189F818103046C9E71800002046
:1003D000002002400348016941F0800101610020D2
:1003E00070470000002002402DE9F05F07461C48DE
:1003F00088460024017E15461E46012909D00121A8
:10040000814601764CF2503A5046FFF75DFF18B135
:1004100022E00220BDE8F09F012F02D0022F00D081
:100420000427D346DFF83CA0220128463146FFF7D7
:100430009FFE81B208EB4400FFF70AFF5846FFF722
:1004400043FFDAF8102022F00102CAF8102018B990
:10045000641CE4B2BC42E7D3002289F81820D9E733
:100460001800002000200240064900200A691206F8
:1004700007D5054A4A60054A4A600969090600D558
:10048000012070470020024023016745AB89EFCD72
:100490000148006870470000000000200248016821
:1004A000491C0160704700000000002007484FF41D
:1004B0007A71B0FBF1F14FF0E020491E416100215B
:1004C0008161052101610721016170470024F40069
:1004D000FEE70000F0B500220D4B154614460A2732
:1004E000B1FBF3F630368654B1FBF3F603FB16117D
:1004F000B3FBF7F3521C861816F8016C302E00D1AE
:1005000025B16D1C641C0A2CEAD3F0BD0022F9E76A
:1005100000CA9A3B02490A6902430A617047000017
:100520000010024002490A6982430A6170470000D4
:1005300000100240044908B58A6902438A6189694A
:100540000140009108BD000000100240F0B50A68AB
:10055000C2F30F2595FAA5F2B2FA82F369E00122FF
:100560009A402A4264D0082B03D240F201129A40EA
:1005700006E0A3F108024FF00114944044F08062B9
:100580004C68082C0BD10C69C668170A97FAA7F7B4
:10059000B7FA87F726EA1226BC402643C66092FACD
:1005A000A2F700EB1264B7FA87F74FEA870C0F2720
:1005B000266807FA0CF7BE4392FAA2F7D1F804E0D6
:1005C000B7FA87F7BF000EFA07FE46EA0E06266066
:1005D0004F68012F01D0092F2AD192FAA2F7B7FA5A
:1005E00087F74FEA870C032707FA0CF7BE4392FA06
:1005F000A2F7B7FA87F7D1F808E0BF000EFA07FEB6
:1006000092FAA2FC46EA0E06BCFA8CFC4FEA8C0E6B
:100610004FF0040C26600CFA0EFC92FAA2F2B2FA29
:1006200082F2CF68920026EA0C0697403E4326608D
:100630005B1C35FA03F292D10020F0BD4FF47A71C1
:10064000B0FBF1F14FF0E020491E416100218161D2
:1006500005210161704700B5034600F007F91860F5
:1006600000F0DAF8586000F0E5F89860586800F09B
:10067000EFF8D86000BD0000014908607047000035
:100680000400002070B517490024884209D116489B
:10069000C16841F48041C160C16821F48041C160FA
:1006A0001EE01249884202D14FF4003510E0104993
:1006B000884202D14FF480250AE00E49884202D1D7
:1006C0004FF4002504E00C49884208D14FF480150E
:1006D0002846FFF71FFF2846FFF724FF00E001240C
:1006E000204670BD00380140001002400044004028
:1006F00000480040004C0040005000402DE9FF4100
:100700000446C0680D460126C0F34030002861D180
:10071000E9686868E2680843296941F20C639A4312
:1007200011430843E060A868216921F44051014366
:1007300021616869616921F4407101436161684622
:10074000FFF789FF2548844201D103980CE0244833
:10075000844208D02348844205D02348844202D0F2
:100760002248844236D10298A0B32A6892B300EBA3
:10077000C00101EB00119200B1FBF2F36420B3FB66
:10078000F0F36FF018077B43B1FBF2F5B1FBF2F722
:1007900005EB8305322303EB0515B5FBF0F5B7FB3D
:1007A000F0F705F0F00505EB0715B1FBF2F7B1FB2B
:1007B000F2F1B1FBF0F100266FF01802514307EBA4
:1007C000810103EB0111B1FBF0F000F00F002844B0
:1007D00080B2A06004B03046BDE8F081003801402E
:1007E0000044004000480040004C004000500040E1
:1007F00008B54FF0E0210A690092421C00D0401C6D
:100800000A69D20300D5401E0028F9D108BD00F0C6
:10081000B1B8FEE7FEE7704704494968044A01F0B1
:10082000F0010909515CC840704700000010024007
:100830007811000804494968044A01F4E06102EBB8
:1008400011210978C8407047001002408811000843
:1008500004494968044A01F4605102EBD121097846
:10086000C8407047001002408811000806484068E0
:1008700010F00C01054805D0042903D0082901D146
:1008800000F006B8704700000010024000127A0025
:100890000B48416811F480320A4909D0B2F5803F13
:1008A00006D14168084AC1F34041491CB2FBF1F14D
:1008B0004068022200F4701002EB904048437047F9
:1008C0000010024000093D0000127A002DE9F843B3
:1008D00000240F4606460C6090460121684600F051
:1008E00023FC054601281BD19DF8000018281BD0C9
:1008F00005DC012806D0022806D0042800D00025F7
:1009000030700DE0802401E04FF480643070211DD0
:100910004246B01C00F008FC0546012815D0002412
:1009200028463C60BDE8F88342460121684600F055
:10093000FBFB012803D19DF80000182803D00025F7
:100940009DF80000DCE70224DAE7F178B07881F066
:10095000FF0188420AD130190179407900EB012862
:100960002146301DFFF73AFC4045D9D000242546EA
:10097000D6E770471FB500200090019002900390C9
:1009800019A000F0BDF803A800F0DCF938B1052883
:1009900022D0042822D0022824D022A01FE02948F7
:1009A00000F0AEF8284800F0ABF868460399FFF76E
:1009B00091FD26A000F0A4F8684600F0A1F826A05A
:1009C00000F09EF827A000F09BF800F0B2FA72B693
:1009D0002A4800F089FB1FBD29A000E038A000F0E4
:1009E0008FF81FBD3DA0FAE757616974696E6720F3
:1009F000666F72207468652066696C6520746F206C
:100A000062652073656E74202E2E2E20287072650C
:100A100073732027612720746F2061626F727429BD
:100A20000A0D00000A0D4661696C656420746F2030
:100A300072656365697665207468652066696C65B2
:100A4000210A0D0090110008020900200A0D205310
:100A5000697A653A200000002042797465730D0AB6
:100A6000000000002D2D2D2D2D2D2D2D2D2D2D2D6A
:100A70002D2D2D2D2D2D2D0A000000000028000801
:100A80000A0A0D54686520696D6167652073697A8B
:100A90006520697320686967686572207468616E93
:100AA0002074686520616C6C6F7765642073706179
:100AB0006365206D656D6F7279210A0D000000007D
:100AC0000A0A0D566572696669636174696F6E2002
:100AD0006661696C6564210A0D0000000D0A0A4117
:100AE000626F7274656420627920757365722E0A74
:100AF0000D00000001B50121684600F03BFB08BD78
:100B0000002101E0491C89B2425C002AFAD100F0C0
:100B100031BB0000F0B5054600242A782046234664
:100B2000302A2ED16A78782A01D0582A29D1022475
:100B30001CE000BFA2F14106052E07D9A2F1610712
:100B4000052F03D91136092E04D913E0A2F130077D
:100B5000092F01D8303A04E0052E01D8373A00E0D9
:100B6000573A641C02EB03130B2C04D22A5D002AB3
:100B7000E0D103E000202A5D002A01D101200B60B2
:100B8000F0BD2A5D62B16B2A01D04B2A02D10CB1B3
:100B90009B0205E06D2A01D04D2A04D11CB11B0532
:100BA00001200B600AE0A2F13006092E0CD803EBFD
:100BB00083036FF02F0606EB43031344641C0B2CD6
:100BC000DED20128DDD1F0BD0020F0BDFFF766BC0C
:100BD000244810B5016821F007010160016811F097
:100BE000070FFBD12048016821F0F80141F0800196
:100BF0000160016841F0010101600168C1F3400139
:100C00000029FAD0416821F47C1141F400214160AF
:100C1000016841F0807101600168C1F34061002901
:100C2000FAD0416821F0F0014160416821F4E061AF
:100C30004160416821F460514160416821F0030145
:100C400041F002014160416801F00C010829FAD12C
:100C5000064C2046FFF7F2FC2046BDE81040FFF7A7
:100C60000BBD000000200240001002400024F400F0
:100C70007047000038B5124C2068C0F3401090B1A6
:100C8000E068C0F3401070B160680F490D4B0A88EE
:100C90009854521C90B240F698020880904201D3BA
:100CA0000020088038BD252000F0FEF82068009064
:100CB0004007F7D5206800906068009038BD0000BC
:100CC00000380140380000200800002038B5114CE1
:100CD0002068C0F3401080B1E068C0F3401060B1FC
:100CE00060680E490C4B4A889854521C90B2488058
:100CF000322801D30020488038BD262000F0D4F8E7
:100D0000206800904007F7D5206800906068009048
:100D100038BD000000440040D0080020080000203A
:100D200041F4807141F2210240004900CB0500D519
:100D3000401CC30300D55040CB03F5D580B27047AB
:100D4000FEE700002DE9F14F0027DFF850A188B041
:100D5000DFF844B13D46B8463C46CAF800B093E0DF
:100D60004FF000094E468BE040F6B83204A94C48DB
:100D7000FFF7ACFD01280AD0B8F1000F00D06D1CC0
:100D8000052D7AD91820FFF7B5FE182076E0049AD1
:100D9000002572B1022A07D0414909F0FF008B7883
:100DA00083420BD0152069E00620FFF7A3FE022442
:100DB00066E00620FFF79EFE012661E0B9F1000F14
:100DC0000CD0DAF80000091D00F08EF8DAF8000007
:100DD00004990144CAF8001006203EE00879E8B3FF
:100DE0000020304B091D02E01A54401C491C0A78AF
:100DF0000AB14028F8D34FF0000C03F800C0604659
:100E00006B4601E01A54401C11F8012F202A01D032
:100E10001028F7D303F800C006A91846FFF77AFE9A
:100E200008986FF4FB210068C8420BD918208DF890
:100E30001400012105A800F09DF9012105A800F08A
:100E400099F90524FB21584600F07AF8089806998C
:100E500001600620FFF74EFE432001E007E00CE0B2
:100E6000FFF748FE09F101094FF0010808E00620EC
:100E7000FFF740FE0126374602E04320FFF73AFE27
:100E800056EA04003FF470AF57EA04003FF468AF3D
:100E900009B02046BDE8F08F0028000810000020AF
:100EA000420900200209002000280DDB00F01F028B
:100EB000012191404009800000F1E020C0F880113C
:100EC000BFF34F8FBFF36F8F704702E008C8121F48
:100ED00008C1002AFAD170477047002001E001C123
:100EE000121F002AFBD170472DE9F04114000F4674
:100EF0004FF0000506461AD0A00715D022F00304D3
:100F0000241D11E007EB850017F82510427841EA0F
:100F100002218278C07841EA024141EA006130460C
:100F200000F027F86D1C361DB5EB940FEAD3BDE831
:100F3000F08110B500F068F8BDE81040FFF7EEB999
:100F400070B586B000260C4605460496FFF78CFA6D
:100F5000CDE9025404A968460096FFF7E7F920B1ED
:100F6000FFF738FA002006B070BDFFF733FA012012
:100F7000F9E770B50C460546FFF776FA22460023DE
:100F800029460220FFF730FA18B1FFF723FA0020B4
:100F900070BDFFF71FFA012070BD0000164808B5AC
:100FA000816941F001018161816901F001010091D4
:100FB000C16941F08051C161C069104900F08050A1
:100FC000009008684FF6FF0210400D4A40F4407050
:100FD000104308600B48416821F0E06141604168BE
:100FE00041F000714160FFF7F3FDFFF75FFABDE8E4
:100FF000084000F015B80000001002400CED00E0C1
:101000000000FA050000014010B52520FFF74CFF55
:10101000BDE810400148FFF735BB00000038014033
:1010200030B58DB01C216846FFF7B9F8142107A828
:10103000FFF7B5F84FF48040FFF77CFA0420FFF784
:1010400079FA194807900920089003200024CDE977
:101050000904164D07A92846FFF778FA14480790A7
:101060000420089007A92846FFF770FA4FF4E130F2
:10107000CDE900040C200294CDE9034005940694C8
:101080000C4C69462046FFF739FB206920F490405C
:101090002061606920F02A006061E06840F400503F
:1010A000E0600DB030BD0000020002040008014005
:1010B000040004040038014010B50022094B09E087
:1010C0001C68C4F3C014002CFAD010F8014B5C600B
:1010D000521C92B28A42F3D31868C0F380100028E1
:1010E000FAD010BD0038014010B50168074A114020
:1010F000B1F1005F09D14168054C21600068FFF73C
:1011000021F82068BDE81040004710BD0000FE2F08
:101110000C000020FFF742FFFFF779FB4FF47A74D1
:101120002046FFF765FBFBE72DE9F04716460F4623
:101130008146FFF7ADF9804600240D4D13E02EB136
:10114000FFF7A6F9A0EB0800B04202D90020BDE8E5
:10115000F0872868C0F340100028F0D0686809F8CC
:101160000400641CA4B2BC42F3D30120EFE70000EA
:1011700000380140FFF7A0BF0000000000000000A1
:10118000010203040607080900000000010203042D
:101190000A0A0D2050726F6772616D6D696E67206B
:1011A000436F6D706C65746564205375636365731C
:1011B0007366756C6C79210A0D2D2D2D2D2D2D2D1D
:1011C0002D2D2D2D2D2D2D2D2D2D2D2D2D2D2D2D4F
:1011D0002D2D2D2D2D2D2D2D2D0D0A204E616D65C2
:1011E0003A20000004120008000000201400000053
:1011F000CA0E000818120008140000203411000064
:10120000DA0E0008000000000024F40000000000D6
:081210000000000000000000D6
:102800009005002045290008DB3C0008D33C000867
:10281000D73C0008092A0008154100080000000004
:10282000000000000000000000000000093D00085A
:102830000D2A000800000000DF3C00080B3D0008E6
:102840005F2900085F2900085F2900085F29000848
:102850005F2900085F2900085F2900085F29000838
:102860005F2900085F2900085F2900085F29000828
:102870005F2900085F2900085F2900085F29000818
:102880005F2900085F2900085F2900085F29000808
:102890005F2900085F2900085F2900085F290008F8
:1028A0005F2900085F2900085F2900085F290008E8
:1028B0005F2900085F2900085F2900085F290008D8
:1028C0005F2900085F2900085F2900085F290008C8
:1028D0005F29000895400008E94000085F290008CA
:1028E0005F2900085F2900085F2900085F290008A8
:1028F0005F2900085F2900085F2900085F29000898
:102900005F2900085F2900085F2900085F29000887
:102910005F2900085F2900085F2900085F29000877
:102920005F2900085F2900085F2900085F29000867
:10293000DFF80CD000F056F800480047A544000826
:10294000900500200648804706480047FEE7FEE75E
:10295000FEE7FEE7FEE7FEE7FEE7FEE7FEE7FEE74F
:102960006D3D00083129000840EA01039B0703D0B0
:1029700009E008C9121F08C0042AFAD203E011F8BE
:10298000013B00F8013B521EF9D27047D2B201E080
:1029900000F8012B491EFBD270470022F6E710B564
:1029A00013460A4604461946FFF7F0FF204610BDBD
:1029B00030B505462A460B4612F8010B13F8014BB9
:1029C00008B1A042F8D01CB1002802D06D1CF1E77C
:1029D000284630BD421C10F8011B0029FBD1801A8B
:1029E00070470000064C074D06E0E06840F0010328
:1029F00094E8070098471034AC42F6D3FFF79CFFE9
:102A0000D8450008F845000800BFFEE770470146BA
:102A1000002291F82100022808D00420886300BF1A
:102A2000002081F8200000BF01207047086800687E
:102A300020F00E000B6818600868006820F00100A4
:102A40000B68186091F8403001209840CB6B5860BB
:102A5000012081F8210000BF002081F8200000BF84
:102A60001046E2E770B50446002594F821000228DC
:102A700003D00420A0630125C1E02068006820F095
:102A80000E00216808602068006820F001002168BD
:102A900008605C492068884252D95A4978392068D0
:102AA000884201D1012047E05649643920688842B4
:102AB00001D1102040E0534950392068884201D1AB
:102AC000801539E04F493C392068884201D1801493
:102AD00032E04C4928392068884202D14FF48030D6
:102AE0002AE0484914392068884202D14FF4801006
:102AF00022E044492068884201D140041CE0424958
:102B00002068884201D1012016E03F491431206835
:102B1000884201D110200FE03B49283120688842CB
:102B200001D1801508E038493C312068884201D144
:102B3000801401E04FF480303349091F086051E0F0
:102B4000304978392068884201D1012047E02D4979
:102B500064392068884201D1102040E02949503969
:102B60002068884201D1801539E026493C39206827
:102B7000884201D1801432E02249283920688842F5
:102B800002D14FF480302AE01E491439206888426F
:102B900002D14FF4801022E01A492068884201D106
:102BA00040041CE018492068884201D1012016E049
:102BB000154914312068884201D110200FE01249D4
:102BC00028312068884201D1801508E00E493C3147
:102BD0002068884201D1801401E04FF48030094917
:102BE00080394860012084F8210000BF002084F86B
:102BF000200000BF606B10B12046616B88472846FB
:102C000070BD0000800002400804024070B5044618
:102C100000F0B0F906462546681C10B1044800785B
:102C2000054400BF00F0A6F9801BA842FAD370BD8E
:102C3000080000202DE9F847024600239C467BE16E
:102C40004FF0010808FA03F4D1F8008008EA040004
:102C5000A0427DD1DFF8F4A2D1F80480A8EB0A09E4
:102C6000D0453AD014DCB8F1030F50D009DCB8F1EC
:102C7000000F31D0B8F1010F1CD0B8F1020F49D1CB
:102C800020E0B8F1110F18D0B8F1120F42D11EE0B8
:102C9000B9F5881F25D006DCB9F5803F20D0B9F5FD
:102CA000801F37D11AE0B9F5001F18D0B9F5041FFD
:102CB00030D117E0D1F80CC02DE0D1F80C8008F12C
:102CC000040C28E0D1F80C8008F1080C23E0D1F8BE
:102CD0000C8008F10C0C1EE000BF00BF00BF00BF5D
:102CE00000BF00BFD1F80880B8F1000F02D14FF04B
:102CF000040C0BE0D1F80880B8F1010F03D14FF0BC
:102D0000080C146102E04FF0080C546103E04FF02E
:102D1000000C00E000BF00BFFF2801D8904601E092
:102D200002F104084646FF2802D84FEA830803E070
:102D3000A3F108084FEA88084746D6F800804FF00C
:102D40000F0909FA07F928EA09080CFA07F900E05F
:102D50007AE048EA0908C6F80080D1F8048008F053
:102D60008058B8F1805F6FD100BFDFF8E481D8F8F8
:102D7000188048F00108DFF8D891C9F81880C846D3
:102D8000D8F8188008F00108CDF8008000BF00BF17
:102D90004FEAB9384FEA930958F829504FEA837837
:102DA0004FEA18794FF00F0808FA09F825EA0805E4
:102DB000DFF8A081424502D14FF0000824E0DFF89F
:102DC0009881424502D14FF001081DE0DFF88C8167
:102DD000424502D14FF0020816E0DFF884814245F7
:102DE00002D14FF003080FE0DFF87881424502D1AD
:102DF0004FF0040808E0DFF87081424502D14FF03F
:102E0000050801E04FF006084FEA83794FEA197987
:102E100008FA09F848EA0505DFF850814FEA9309F6
:102E200048F82950D1F8048008F48038B8F5803F7C
:102E30000BD1DFF83C81D8F8008048EA0008DFF8C1
:102E40003091C9F800800AE075E0DFF82481D8F8F5
:102E5000008028EA0008DFF81891C9F80080D1F84E
:102E6000048008F40038B8F5003F0ED1DFF8008187
:102E700008F10408D8F8008048EA0008DFF8F0906C
:102E800009F10409C9F800800DE0DFF8E48008F1D9
:102E90000408D8F8008028EA0008DFF8D49009F187
:102EA0000409C9F80080D1F8048008F48018B8F546
:102EB000801F0ED1DFF8B88008F10808D8F800802C
:102EC00048EA0008DFF8A89009F10809C9F800806D
:102ED0000DE0DFF89C8008F10808D8F8008028EAA7
:102EE0000008DFF88C9009F10809C9F80080D1F8D2
:102EF000048008F40018B8F5001F0ED1DFF87080C8
:102F000008F10C08D8F8008048EA0008DFF8609063
:102F100009F10C09C9F800800DE0DFF8548008F1D0
:102F20000C08D8F8008028EA0008DFF8449009F17E
:102F30000C09C9F800805B1CD1F8008028FA03F85E
:102F4000B8F1000F7FF47CAEBDE8F88700001110E7
:102F50000010024000080140000C01400010014038
:102F60000014014000180140001C0140080001400D
:102F70000004014001480068704700000000002084
:102F8000034800680349097808440149086070470C
:102F9000000000200800002010B50848006840F03C
:102FA000100006490860032000F0A8F8002000F097
:102FB00007F800F02BF8002010BD000000200240B0
:102FC00070B504460E4800784FF47A71B1FBF0F00A
:102FD0000C490968B1FBF0F5284600F00BFC08B17C
:102FE000012070BD102C07D200222146501E00F097
:102FF00047F80548046001E00120F2E70020F0E70F
:10300000080000200C0000200400002008B500BFCC
:103010001148806940F001000F49886108468069C5
:1030200000F00100009000BF00BF00BF0846C0696B
:1030300040F08050C8610846C06900F080500090A0
:1030400000BF00BF00BF0549486820F0E06040F0C5
:103050000070486000BF08BD001002400000014041
:1030600001460846002809DB00F01F0301229A40B0
:1030700043099B0003F1E023C3F8002100BF704720
:103080002DE9F05F80460D461646002701F068F8EE
:10309000074639462A46334601F00700C0F1070AC1
:1030A000BAF1040F02D94FF0040A01E0C0F1070A97
:1030B000D14600F1040ABAF1070F02D24FF0000A1C
:1030C00001E0A0F1030AD4464FF0010A0AFA09FA16
:1030D000AAF1010A0AEA020A0AFA0CFA4FF0010BF5
:1030E0000BFA0CFBABF1010B0BEA030B4AEA0B04E6
:1030F0002146404601F03CF8BDE8F09F00BF00F0DB
:103100000702064B19684FF6FF031940044B0B43A7
:1031100043EA0221014B196000BF70470CED00E04B
:103120000000FA0570B504460D460CB9012070BDCB
:103130005A48006800F00700A8420ED257480068BD
:1031400020F007002843554908600846006800F051
:103150000700A84201D00120E9E7207800F0020032
:1031600002281DD1207800F00400042805D14C4825
:10317000406840F4E0604A494860207800F0080068
:10318000082805D14648406840F4605044494860EA
:103190004348406820F0F000A16808434049486077
:1031A000207800F0010078B36068012806D13C481F
:1031B000006800F4003090B90120B8E76068022888
:1031C00006D13748006800F0007040B90120AEE732
:1031D0003348006800F0020008B90120A7E7304832
:1031E000406820F00300616808432D494860FFF7FC
:1031F000C1FE064609E0FFF7BDFE801B41F28831A3
:10320000884202D9032092E707E02548406800F091
:103210000C006168B0EB810FEDD12048006800F030
:103220000700A8420ED91D48006820F00700284377
:103230001A4908600846006800F00700A84201D05B
:10324000012074E7207800F00400042807D1144816
:10325000406820F4E060E168084311494860207844
:1032600000F00800082808D10D48406820F460509C
:10327000216940EAC1000A49486000F03FF8084966
:103280004968C1F30311074A515CC8400649086008
:1032900006480068FFF794FE002048E7002002403F
:1032A000001002409C4500080C0000200400002093
:1032B00001480068704700000C00002000B5FFF7CF
:1032C000F7FF04494968C1F30221034A515CC84031
:1032D00000BD000000100240AC45000800B5FFF73B
:1032E000E7FF04494968C1F3C221034A515CC84061
:1032F00000BD000000100240AC450008F0B585B0EC
:103300000FF26C0C9CE8E01001A8A0E8E0101CA5EE
:103310002D68009500210022002300240020194D73
:10332000696801F00C05F5B1042D02D0082D19D102
:1033300001E0154819E001ADC1F38346AC5D01F42D
:10334000803555B10F4D6D68C5F340451DF805201A
:103350000D4D6543B5FBF2F302E00C4D04FB05F3A4
:10336000184602E000BF084800BF00BF05B0F0BD2E
:1033700002030405060708090A0B0C0D0E0F1010B6
:10338000010200000010024000127A0000093D0016
:10339000F8B504460CB90120F8BD207800F0010012
:1033A000002878D0F848406800F00C0004280CD0C1
:1033B000F548406800F00C00082811D1F248406838
:1033C00000F48030B0F5803F0AD1EF48006800F487
:1033D000003000285FD0606800285CD10120DBE766
:1033E00000BF6068B0F5803F06D1E748006840F450
:1033F0008030E549086028E0606858B9E248006814
:1034000020F48030E04908600846006820F48020FD
:1034100008601AE06068B0F5A02F0BD1DA480068A8
:1034200040F48020D84908600846006840F48030A5
:1034300008600AE0D448006820F48030D24908606F
:103440000846006820F48020086000BF606888B1EA
:10345000FFF790FD054606E0FFF78CFD401B642852
:1034600001D9032098E7C848006800F4003000281C
:10347000F2D010E0FFF77EFD054606E0FFF77AFD8B
:10348000401B642801D9032086E7BF48006800F488
:1034900000300028F2D1207800F00200022857D135
:1034A000B948406800F00C0050B1B748406800F0DF
:1034B0000C00082818D1B448406800F4803098B94E
:1034C000B148006800F0020020B12069012801D055
:1034D000012061E7AC48006820F0F800616940EA2B
:1034E000C100A949086033E02069E8B10120A7497B
:1034F0000860FFF73FFD054606E0FFF73BFD401B78
:10350000022801D9032047E79F48006800F0020025
:103510000028F2D09C48006820F0F800616940EA79
:10352000C1009949086013E0002098490860FFF73E
:1035300021FD054606E0FFF71DFD401B022801D9CD
:10354000032029E79048006800F002000028F2D12B
:10355000207800F0080008282DD1A069B8B101201A
:103560008B490860FFF706FD054606E0FFF702FD00
:10357000401B022801D903200EE78348406A00F06F
:1035800002000028F2D0012000F0AAFB13E0002086
:103590007F490860FFF7EEFC054606E0FFF7EAFC0E
:1035A000401B022801D90320F6E67748406A00F064
:1035B00002000028F2D1207800F00400042873D122
:1035C00000277148C06900F0805070B900BF6E4894
:1035D000C06940F080506C49C8610846C06900F07D
:1035E0008050009000BF00BF01276A48006800F4C7
:1035F0008070B0B96748006840F480706549086021
:10360000FFF7B8FC054606E0FFF7B4FC401B642852
:1036100001D90320C0E65F48006800F480700028EC
:10362000F2D000BFE068012806D15748006A40F098
:1036300001005549086227E0E06858B95248006A1D
:1036400020F00100504908620846006A20F004009A
:10365000086219E0E06805280BD14B48006A40F089
:103660000400494908620846006A40F00100086207
:103670000AE04548006A20F0010043490862084614
:10368000006A20F00400086200BFE068A0B1FFF704
:1036900071FC054609E0FFF76DFC401B41F28831E3
:1036A000884202D9032077E622E03748006A00F01A
:1036B00002000028EFD012E0FFF75CFC054608E0AE
:1036C000FFF758FC401B41F28831884201D90320A2
:1036D00062E62D48006A00F002000028F0D1012FB8
:1036E00005D12948C06920F080502749C86100BF32
:1036F000E069C8B32448406800F00C00082860D096
:10370000E069022848D1002020490866FFF732FC12
:10371000054606E0FFF72EFC401B022801D90320D6
:103720003AE61948006800F000700028F2D1206ADB
:10373000B0F5803F07D11448406820F40030A168FC
:10374000084311494860D4E9080108430E49496813
:1037500021F4741108430C49486001200B490866A4
:10376000FFF708FC054607E03DE0FFF703FC401BC0
:10377000022801D903200FE60348006800F000701A
:103780000028F2D02FE0000000100240000042426A
:103790008004424200700040002014490866FFF790
:1037A000E9FB054606E0FFF7E5FB401B022801D9CF
:1037B0000320F1E50E48006800F000700028F2D107
:1037C00011E0E069012800D1E6E50948466806F401
:1037D0008031206A814204D106F47011606A81420E
:1037E00001D00120D8E50020D6E5000000004242CB
:1037F0000010024070B504462546681EB0F1807F77
:1038000001D301200FE0681E4FF0E02148610F2135
:103810004FF0FF3000F0ACFC00204FF0E021886159
:1038200007200861002070BD704770472DE9F84FF0
:103830000446206805682068C668206847694FF01C
:103840000009CA4605F00F09B9F1000F0AD105F0C9
:10385000200038B106F0200020B1204600F0C3FA65
:10386000BDE8F88FB9F1000F71D007F0010018B969
:1038700006F4907000286AD005F0010030B106F41B
:10388000807018B1206C40F00100206405F0040045
:1038900030B107F0010018B1206C40F00200206444
:1038A00005F0020030B107F0010018B1206C40F0C3
:1038B0000400206405F0080048B106F0200010B9AB
:1038C00007F0010018B1206C40F008002064206C63
:1038D00068B305F0200028B106F0200010B12046A2
:1038E00000F081FA20684069C0F3801A206C00F073
:1038F000080010B9BAF1000F22D0204600F048FAB3
:103900002068406900F04000B0B12068406920F0B4
:10391000400021684861A06B50B15648A16B4863D4
:10392000A06BFFF79FF810B1A06B416B88470CE0CC
:103930002046FFF77AFF08E02046FFF776FF04E015
:103940002046FFF772FF0020206489E7FFE7206B25
:10395000012878D105F01000002874D006F010007E
:10396000002870D000BF0020009020680068009000
:1039700020684068009000BF00BF2068406900F0E8
:103980004000C0B3A06B006840681FFA80F8B8F12F
:10399000000F2FD0A08D40452CDDA4F82E80A06B09
:1039A000806920281FD02068C06820F480702168BA
:1039B000C8602068406920F00100216848612068E3
:1039C000406920F0400021684861202084F83E00D2
:1039D000002020632068C06820F010002168C860C3
:1039E000A06BFFF714F8A08DE28D801A81B22046FB
:1039F000FFF71AFF34E7FFE7A08DE18D401A1FFAA9
:103A000080F8E08DE8B1B8F1000F1AD02068C068E6
:103A100020F490702168C8602068406920F001009F
:103A200021684861202084F83E000020206320683F
:103A3000C06820F010002168C86041462046FFF7AA
:103A4000F3FE0DE7FFE705F0800030B106F08000DF
:103A500018B1204600F0B8FA02E705F0400030B196
:103A600006F0400018B1204600F0ADF9F8E600BFBE
:103A7000F6E600007D3D000810B504460CB90120B3
:103A800010BDA06900B100E000BF94F83D0028B966
:103A9000002084F83C00204600F028F8242084F818
:103AA0003D002068C06820F400502168C8602046AE
:103AB00000F00CFA2068006920F490402168086149
:103AC0002068406920F02A00216848612068C068A9
:103AD00040F400502168C86000202064202084F851
:103AE0003D0084F83E000020CAE7000010B586B013
:103AF0000446002002900390049005903B49206802
:103B0000884237D100BF3A48806940F48040384944
:103B100088610846806900F48040019000BF00BFC2
:103B200000BF0846806940F004008861084680694B
:103B300000F00400019000BF00BF48150290022071
:103B400003900320059002A92A48FFF773F84FF469
:103B50008060029000200390049002A92548FFF79E
:103B600069F8002211462520FFF78AFA2520FFF781
:103B700077FA39E020492068884235D100BF1C48D7
:103B8000C06940F400301A49C8610846C06900F4B1
:103B90000030019000BF00BF00BF0846806940F0C0
:103BA000040088610846806900F00400019000BFAD
:103BB00000BF04200290022003900320059002A978
:103BC0000C48FFF737F8082002900020039004907B
:103BD00002A90848FFF72EF8002211462620FFF719
:103BE0004FFA2620FFF73CFA06B010BD003801401E
:103BF00000100240000801400044004070472DE9D9
:103C0000F84F04460E46174699464FF0000A94F8BE
:103C10003D0020285AD106B117B90120BDE8F88F20
:103C200000BF94F83C00012801D10220F6E70120F2
:103C300084F83C0000BF00202064212084F83D006F
:103C4000FFF798F98246A784E784A068B0F5805F03
:103C500004D1206910B90025B04602E035464FF086
:103C6000000800BF002084F83C0000BF1BE0534662
:103C7000002280212046CDF8009000F0D5F908B14F
:103C80000320CBE745B9B8F80000C0F3080021686D
:103C9000486008F1020803E02878216848606D1C3C
:103CA000E08C401EE084E08C0028E0D153460022E6
:103CB00040212046CDF8009000F0B6F908B103206D
:103CC000ACE7202084F83D000020A7E70220A5E70C
:103CD000704700BFFEE700BFFEE700BFFEE770478A
:103CE00008B508490968C9084FF47A72B1FBF2F1C6
:103CF0004143009100BF00BF00994A1E0092002975
:103D0000F9D108BD0C000020704710B5FFF738F955
:103D100010BD00B58FB0282105A8FEF73EFE142186
:103D20006846FEF73AFE0120059000040690002048
:103D300007900120099002200C90C1030D914FF4CF
:103D4000E0110E9105A8FFF723FB0F200090022041
:103D50000190002002904FF48060039000200490B6
:103D600002216846FFF7DEF90FB000BD01480249A5
:103D7000086070470028000808ED00E070B50546AF
:103D80006C6A0020E085E0842046FFF74EFD70BDA0
:103D90000168C96821F490710268D16001684969BD
:103DA00021F0010102685161016B012905D101680F
:103DB000C96821F010010268D160202180F83E100E
:103DC00000210163704710B504462068C06820F0E8
:103DD00040002168C860202084F83D002046FFF79D
:103DE00077FF002010BDF8B5044694F83E00222865
:103DF00069D1A068B0F5805F0CD1206950B9002569
:103E0000A66A20684068C0F308003080A06A801C61
:103E1000A06215E0A56A0026A068B0F5805F03D017
:103E2000A06828B9206918B920684068287004E0A3
:103E30002068406800F07F002870A06A401CA062E3
:103E4000E08D401E80B2E085A8BB2068C06820F0ED
:103E500020002168C8602068C06820F48070216854
:103E6000C8602068406920F0010021684861202076
:103E700084F83E00206B01281ED1002020632068BA
:103E8000C06820F010002168C8602068006800F059
:103E9000100010280AD100BF0020009020680068A0
:103EA000009020684068009000BF00BFA18D2046B0
:103EB000FFF7BAFC03E004E02046FFF79FFE002076
:103EC000F8BD0020FCE70220FAE7000070B50446C8
:103ED0002168096921F44051E268114322681161A7
:103EE0002269A1681143626941EA02052168C96833
:103EF00041F20C62914329432268D16021684969EB
:103F000021F44071A2691143226851612D4A216850
:103F1000914202D1FFF7E2F901E0FFF7CFF900EBA0
:103F2000C00101EB001162689200B1FBF2F100EBFD
:103F3000C00202EB001263689B00B2FBF3F2642341
:103F4000B2FBF3F202EBC20303EB0212A1EB82011C
:103F5000322202EB01116422B1FBF2F101F0F00117
:103F600000EBC00202EB001263689B00B2FBF3F2AD
:103F70006423B2FBF3F201EB021200EBC00101EB90
:103F8000001163689B00B1FBF3F100EBC00303EB8E
:103F900000136668B600B3FBF6F36426B3FBF6F3D2
:103FA00003EBC30606EB0313A1EB8301322303EB00
:103FB00001116423B1FBF3F101F00F0111442268F8
:103FC000916070BD00380140014691F83D00212804
:103FD00028D18868B0F5805F0BD1086948B90A6AB2
:103FE0001088C0F308000B685860086A801C0862DB
:103FF00005E00B6A581C086218780B685860C88C7A
:10400000401E80B2C88458B90868C06820F080009B
:104010000B68D8600868C06840F040000B68D86042
:10402000002070470220FCE72DE9F04104460D46D0
:1040300017469846069E21E0701CF8B12EB1FEF797
:1040400099FFA0EB0800B04218D92068C06820F49E
:10405000D0702168C8602068406920F001002168A4
:104060004861202084F83D0084F83E0000BF002015
:1040700084F83C0000BF0320BDE8F08120680068A0
:104080002840A84201D1012000E00020B842D3D04E
:104090000020F1E708B5002000900F480068006894
:1040A000C0F34010A0B10D480068C0B200909DF868
:1040B00000100B4802880088401C094B18800948F2
:1040C000815418460088322802DB002019460880F7
:1040D0000148FFF7ABFB08BD340000200438014065
:1040E000140000207800002008B500200090074848
:1040F00000680068C0F3401018B105480068C0B2FD
:1041000000900248FFF792FB08BD0000AC000020C1
:104110000444004000BFFEE70FB4054B10B503A9EF
:10412000044A029800F047F810BC5DF814FB000048
:104130002D430008100000200FB4084B10B504A94F
:1041400002AA039800F037F8044602A9002000F004
:104150009DF8204610BC5DF814FB00008D4200085D
:1041600002480068C0F30220704700000CED00E038
:1041700010B5002804DB0A07130E054A135406E0A5
:104180000A07140E034A00F00F031B1FD45410BD7E
:1041900000E400E018ED00E002E008C8121F08C1CA
:1041A000002AFAD170477047002001E001C1121FB8
:1041B000002AFBD170472DE9F84F99469246884670
:1041C0000546002706E025280AD051464A46904772
:1041D0006D1C7F1C28780028F5D13846BDE8F88F83
:1041E000002315F8011F18462E2915D115F8011FB7
:1041F00004232A290DD06FF02F022978A1F1300471
:10420000092C09D800EB800002EB400008446D1C2B
:10421000F3E758F8040B6D1C2A78002ADDD0632AD6
:1042200007D0732A0FD0104651464A4690477F1C4C
:104230002AE018F8042B8DF8002000218DF80110D9
:104240006E46012103E058F8046B4FF0FF315A0726
:104250004FF0000401D409E0641C84420BDA8C4264
:10426000FADB325D002AF7D105E0641C8C42FCDBEE
:10427000305D0028F9D1274404E016F8010B5146BF
:104280004A469047641EF8D26D1CA3E70A68531C87
:104290000B601070704710B5FEF77EFEFFF739FD1A
:1042A00000F002F862B610BD10B50D480D49086067
:1042B0004FF4E130486000210A488160C16001612B
:1042C0000C21416100218161C161FFF7D5FB0548E7
:1042D0000068C06840F0200002490968C86010BD4D
:1042E000003801403400002070B504460D464FF6FA
:1042F000FF732A4621460248FFF781FC70BD00008B
:104300003400002010B56C210548FEF746FB322131
:104310000448FEF742FB00200349088010BD00005E
:1043200024010020780000201400002013B50C4662
:104330004FF6FF73012269460248FFF760FC0098C0
:104340001CBD00003400002070B58EB005460E463E
:10435000342101A8FEF721FB07A30AA20BA101A8A3
:10436000FFF7EAFE01A8FEF735FB84B2214601A85B
:1043700000F0E8F80EB070BD53544D333246313082
:104380003378450056302E30310000006765745F89
:104390006465766963655F76657273696F6E3D25E6
:1043A0007320282573290D0A0000000010B500F0C5
:1043B00013F80649086000F00BF80446034821464C
:1043C00002680830FEF7D0FA10BD0000240100207A
:1043D00000487047780000200148008870470000BE
:1043E00014000020F0B58DB006460F463421684613
:1043F000FEF7D3FA13A16846FFF79EFE6846FEF764
:10440000E9FA84B22146684600F09CF8002414E0E2
:1044100034216846FEF7C1FA0D4850F834200DA14A
:104420006846FFF789FE6846FEF7D4FA85B229464A
:10443000684600F087F8601CC4B2032CE8D30DB0C6
:10444000F0BD0000636D64206C6973743A0D0A005E
:104450001800002025730D0A0000000072B600BF8E
:1044600000BF00BF00BF00BFBFF34F8F00BF00BF42
:1044700000BF0A48006800F4E06009490843001DD5
:104480000649086000BF00BF00BFBFF34F8F00BFE9
:1044900000BF00BF00BF00BFFDE700000CED00E063
:1044A0000000FA050024FFF7F6FE0CA0FFF734FE2B
:1044B00012E00A20FEF7AAFB601C84B2052094FBE0
:1044C000F0F100FB114008B900F058F8642C03DB50
:1044D000002406A0FFF720FEEBE700000D0A206590
:1044E0006E74657220617070200D0A0072756E2EF8
:1044F0002E2E0D0A0000000070B504460D46FFF791
:10450000ADFF70BD70B5002414E00C4850F83410B5
:104510000B48FEF74DFA054655B1094808380088A2
:1045200081B2064800EBC40042680548904770BD60
:10453000601CC4B2032CE8D300BFF8E718000020C9
:104540002C01002070B505460C4622462946064837
:10455000FEF70AFA04483A384460808881B202487B
:10456000FFF7C2FE70BD00005E01002010B5FFF72E
:104570001DFFFFF7C7FFFFF7C5FE10BD10B5FFF722
:104580002BFF04463CB104480088844201D1FFF768
:10459000EDFF0148048010BD300000200000000045
:1045A00000000000010203040607080900000000E3
:1045B000010203046765745F6465766963655F760D
:1045C000657273696F6E000068656C7000000000B2
:1045D0007265626F6F740000F845000800000020EB
:1045E00034000000984100082C46000834000020E8
:1045F0005C050000A8410008000000001000000059
:10460000010000000024F400000000000000000091
:10461000C8450008E5430008D0450008F9440008F3
:0C462000B44500084943000800000000F9
:00000001FF
