:020000040800F2
:1000000040110020DD00000805070008E903000892
:1000100000000000000000000000000000000000E0
:10002000000000000000000000000000710800084F
:10003000000000000000000007070008CF0A0008C9
:10004000EF00000800000000EF000008EF000008CB
:10005000EF000008EF000008EF000008EF000008C4
:1000600000000000EF000008EF000008EF000008AB
:10007000EF000008EF000008EF000008000000009B
:10008000EF0000080000000000000000EF00000882
:1000900000000000EF000008EF000008EF0000087B
:1000A000EF000008EF000008EF000008E90A000870
:1000B0003D0B0008000000000000000000000000F0
:1000C0000348854600F040F800480047ED0F00085F
:1000D0004011002080F308887047000004488047E2
:1000E00004480047FEE7FEE7FEE7FEE7FEE7FEE71F
:1000F000D90A0008C100000830B50B4601460020AF
:100100002022012409E00D46D5409D4205D31D461D
:100110009540491B2546954040191546521E002D15
:10012000F1DC30BDD2B201E00270401C491EFBD2AE
:1001300070470022F6E710B513460A4604461946F2
:10014000FFF7F0FF204610BD064C0125064E05E0E6
:10015000E36807CC2B430C3C98471034B442F7D3E8
:10016000FFF7B2FF341100085411000830B50446FF
:100170000020651803E02178641C00F007FDAC4204
:10018000F9D3002100F002FD002100F0FFFC30BD9A
:1001900003494A6901231B04184302434A6170471B
:1001A00000200240044A5069F8239843C9000143E3
:1001B00002480143516170470020024002000100E3
:1001C00030B505494C6901252C434C610260BFF3F1
:1001D0006F8F436030BD00000020024030B50B4CF3
:1001E000002362690125AD042A436261EFF31082A6
:1001F00072B620C95B1C20C0DBB2402BF9D320694A
:10020000C003FCD482F3108830BD000000200240FF
:10021000F8B5054600F0CCF8471901263604114C14
:1002200003E000F0C5F8B84214D220693042F8D19A
:1002300021690D4801400D48206103D00C48416000
:100240000120F8BD00F0B4F8451905E000F0B0F861
:10025000A84201D30320F8BD20694003F6D4002052
:10026000F8BD000000200240FA830000FB8300007C
:100270001400002002480169022291430161704785
:1002800000E000E0F8B51F4E044630780F46012824
:100290000AD001203070002070607D20C000FFF780
:1002A000B7FF002802D029E00220F8BD04216160D8
:1002B0002268042A03D0491F3960A56814E0084663
:1002C000FFF766FF7D20C000FFF7A2FF16E029467A
:1002D0006068FFF767FF7D20C000FFF799FF0028E7
:1002E00001D03D6005E06D1CE268A1688918A94253
:1002F000EDD805494A6902239A434A6100213170C9
:10030000F8BD000014000020002002400549012033
:100310004A69C3071A434A614969002900DA002083
:100320007047000000200240F0B51FB4144C064690
:100330002078154601280AD00120207000277D2052
:10034000C0006760FFF764FF002803D010E00220C0
:1003500005B0F0BD012E0DD029460198FFF73EFFF4
:100360007D20C000FFF754FF06494A69B2434A6145
:100370002770EDE72A46039B0198FFF721FFEFE77F
:100380001400002000200240064900204A69002A8B
:1003900007DA054A8A60054A8A604969002900DA55
:1003A000012070470020024023016745AB89EFCD53
:1003B0000148006870470000000000200248016802
:1003C000491C0160704700000000002005480449F6
:1003D00041610021816105210161072101617047AF
:1003E0007F3E000000E000E0FEE70000F3B50024DF
:1003F000104F81B02646254639460298FFF77CFE0D
:10040000019A3030105502910A213846641CFFF7DA
:1004100073FE0746019800192038C07F302801D1AB
:10042000002E04D0761C6D1C0A2DE5D3FEBD0024E1
:10043000F9E7000000CA9A3BF0B500244CE0012324
:10044000A3401A4047D04B68012B01D0022B0FD19B
:100450008E688568134653435F00DF19BD437343BD
:100460001D438560CB684568534395431D434560F4
:100470000F69C668134653435D005D19AE435F4381
:100480003E43C6604E68022E1FD1FF2A0ED8174683
:100490004A69066A94461A467A437A431701BF1A94
:1004A000BE4367467A43164306620EE0160A32469A
:1004B00072434F6972437243BC461601B71A466ACB
:1004C000BE4367467A43164346624A68066853430A
:1004D000AE431E430660641C0A681346E340AED177
:1004E0000020F0BD08B504494A6B02434A63496BDA
:1004F0000140009108BD00000010024010B57D21B0
:10050000C900FFF7F9FD0449401E486100208861D9
:100510000520086110BD000000E000E010B50446B1
:1005200000F012F9206000F0EFF8606000F0FCF8D5
:10053000A06010BD014610B50020032913D1134A55
:10054000516903238907890F1B041943DB43C91829
:100550000AD001290BD0022911D000F0F5F800F0E3
:10056000D3F800F0E1F810BD00F0EEF810BD074937
:10057000403909684905C90FF8D0054810BDD1694F
:100580008907C90FFAD00120C00310BD40100240F6
:100590000024F400014908607047000004000020B6
:1005A00041680922D2029143416081682A22914325
:1005B0008160704702460E4B00200E499A4208D1D6
:1005C00001220B6B920313430B630B6B93430B637F
:1005D0007047094B9A4208D10122CB6A5204134357
:1005E000CB62CB6A9343CB62704701207047000017
:1005F000003801400010024000440040FEB50446AF
:1006000000680D46012738405CD12969A868EA696D
:10061000084369691143084321682B4A1140084384
:100620002060E96860680322120390430843606019
:10063000A969A068121190430843A060234884422E
:1006400003D10320FFF776FF06E02148844232D130
:100650006846FFF763FF029800282CD06E68002ED2
:1006600029D029680027EA690B2924D80123DB0354
:100670009A4213D109068A0D16498958FFF73CFDA5
:100680004000710840183146FFF736FD81B212482C
:1006900008400907490F0143E1600CE009068A0D93
:1006A0000C498958FFF728FD710840183146FFF7BB
:1006B00023FD80B2E0602888E16A80B2090909015F
:1006C0000143E1623846FEBDF369FFEF00380140A7
:1006D0000044004050100008F0FF000008B5064933
:1006E0000A690092421C00D0401C0A69D20300D55E
:1006F000401E0028F9D108BD00E000E010B500F070
:10070000B9F810BDFEE77047054989688A093C21A0
:100710000A400A400349895CC906C90EC8407047AF
:10072000001002408010000805498968054A490404
:10073000490F8900515CC906C90EC84070470000C6
:1007400000100240C010000810B50B49886838221C
:10075000104008280AD010280AD008680121800417
:10076000400F81400548FFF7C7FC10BD044810BD8D
:1007700000F008F810BD0000001002400024F40052
:1007800000127A0010B50D4AD0680D498007800F1D
:10079000022802D0032800D14910D068440FD06845
:1007A0004006430FD068641C4004400E4843591C67
:1007B000FFF7A2FC2146FFF79FFC10BD001002408E
:1007C0000024F400F7B582B000240C600F46064602
:1007D00001216846049A00F013FC054601281BD14C
:1007E0006846007818281BD005DC012806D00228AE
:1007F00006D0042800D0002530700DE0802401E0F0
:100800000124A4023070211DB01C049A00F0F8FBF2
:100810000546012815D000243C60284605B0F0BDEF
:1008200001216846049A00F0EBFB012803D16846D9
:100830000078182803D0684600250078DCE70224F9
:10084000DAE7F078B178FF22504081420DD13019BB
:10085000017940790902401801902146301DFFF7C7
:1008600085FC014601988142D6D000242546D3E775
:10087000704700001FB50020009001900290039087
:100880001AA000F0BFF803A800F092F9002807D0E2
:10089000052822D0042822D0022824D022A01FE03C
:1008A000294800F0AFF8294800F0ACF868460399F1
:1008B000FFF79CFD26A000F0A5F8684600F0A2F81E
:1008C00026A000F09FF828A000F09CF800F06DFA38
:1008D00072B62B4800F074FB1FBD2AA000E039A0BF
:1008E00000F090F81FBD3EA0FAE700005761697460
:1008F000696E6720666F72207468652066696C6532
:1009000020746F2062652073656E74202E2E2E2059
:100910002870726573732027612720746F206162CD
:100920006F7274290A0D00000A0D4661696C6564D6
:1009300020746F2072656365697665207468652030
:1009400066696C65210A0D00E0100008FA080020B5
:100950000A0D2053697A653A20000000204279741C
:1009600065730D0A000000002D2D2D2D2D2D2D2D30
:100970002D2D2D2D2D2D2D2D2D2D2D0A000000007E
:10098000002800080A0A0D54686520696D616765D2
:100990002073697A652069732068696768657220C9
:1009A0007468616E2074686520616C6C6F77656433
:1009B000207370616365206D656D6F7279210A0D1A
:1009C000000000000A0A0D56657269666963617469
:1009D000696F6E206661696C6564210A0D00000014
:1009E0000D0A0A41626F7274656420627920757322
:1009F00065722E0A0D00000001B50121684600F065
:100A000023FB08BD10B5002101E0491C89B2425CFE
:100A1000002AFAD100F018FB10BDF0B505460024FD
:100A20002B7820462246302B2CD16B78782B01D0A6
:100A3000582B27D102241AE01E46413E052E06D926
:100A40001F46613F052F02D93137092F13D81F46A2
:100A50001201303F092F01D83B4604E0052E01D892
:100A6000373B00E0573BD218641C0B2C04D22B5DA3
:100A7000002BE1D103E000202B5D002B01D10120F0
:100A80000A60F0BD2B5D002B0ED06B2B01D04B2BE1
:100A900003D1002C01D0920206E06D2B01D04D2B2A
:100AA00005D1002C03D0120501200A6007E01E4684
:100AB000303E092E09D80A267243303A9A18641C2F
:100AC0000B2CDED20128DDD1F0BD0020F0BD00B539
:100AD000FFF774FC00BD000001200249C0068860D9
:100AE0007047000000ED00E038B5104CE06980066A
:100AF000C00F11D020688006C00F0DD0606A0D496C
:100B00000B4B0A889854521C90B20B4A08809042B2
:100B100001D30020088038BD1B2000F0F9F8E069FF
:100B200000904007F7D50420206238BD003801400E
:100B300030000020080000209808000038B5104C54
:100B4000E0698006C00F10D020688006C00F0CD06E
:100B5000606A0D490B4B4A889854521C90B24880E9
:100B6000322801D30020488038BD1C2000F0D0F886
:100B7000E06900904007F7D50420206238BD0000EE
:100B800000440040C808002008000020074AFF3148
:100B9000013140004900CB0500D5401CC30300D5FE
:100BA0005040CB03F5D580B2704700002110000003
:100BB000F1B5002790B051494F4808973D463C4653
:100BC000086091E0002006460B9089E04C4A0CA991
:100BD0004C48FFF7F7FD01280AD00898002800D0FC
:100BE0006D1C052D79D91820FFF706FF182075E038
:100BF0000C9A0025002A0ED0022A07D041490B98F2
:100C00008B78C0B283420BD0152067E00620FFF737
:100C1000F3FE022464E00620FFF7EEFE01265FE00B
:100C20000B9800280CD035480068091D00F08FF89B
:100C3000324800680C9941183048016006203DE0B8
:100C40000879002843D000202F4B091D02E01A54D8
:100C5000401C491C0A78002A01D04028F7D3002202
:100C60001A54104604AB01E01A54401C491C0A787F
:100C7000202A01D01028F7D3002119540DA91846B5
:100C8000FFF7CBFE10982149006888420BD9182045
:100C900069460872012102A800F0D6F9012102A8D4
:100CA00000F0D2F905241B21134800F084F81098B5
:100CB0000D9901600620FFF79FFE4320FFF79CFE81
:100CC0000B98401C0B900120089009E005E00620DD
:100CD000FFF792FE0126374602E04320FFF78CFE25
:100CE0003046204300D171E73846204300D169E700
:100CF000204611B0F0BD0000002800080C000020C4
:100D0000B80B00003A090020FA08002001D80000C2
:100D1000002809DBC106C90E01208840034908608C
:100D2000BFF34F8FBFF36F8F7047000080E100E08B
:100D300002E008C8121F08C1002AFAD170477047A4
:100D4000002001E001C1121F002AFBD17047F8B555
:100D500000240E460546002A26D0500702D0D208AD
:100D6000D2000832D7081DE0E000315C82195078CB
:100D700053790002084391781B0209040143D0789B
:100D80000006084311790B439179D279090419437C
:100D900013060B4300210A184B41284600F029F89E
:100DA000641C0835A742DFD8F8BD10B500F082F802
:100DB000FFF760FA10BD30B50D4685B000210491F3
:100DC0001F21C9064018C40AFFF7DEFA022000906E
:100DD00004A9039502946846FFF754FA002804D04A
:100DE000FFF794FA002005B030BDFFF78FFA01201D
:100DF000F9E770B516461C460546FFF7C5FA3246B8
:100E0000234629460120FFF78FFA002803D0FFF779
:100E10007DFA002070BDFFF779FA012070BD000057
:100E200008B50C48012102680A43026000680840C6
:100E30000090084809074038C26B0A43C263C06B80
:100E40000840009000F008F8FFF7C0FA00F03CF806
:100E500008BD00004010024010B51448016882151A
:100E60001143016001684905C90FFBD081680F2259
:100E70001202914381608168C908C90081603822EB
:100E800081681142FCD1816807221203914381607D
:100E9000074C2046FFF732FB2046FFF77BFB034859
:100EA0004030416989088900416110BD001002404D
:100EB0000024F40010B51B20FFF72AFF0148FFF7BC
:100EC00079FB10BD00380140F0B58FB0202106A895
:100ED000FFF72FF918216846FFF72BF92A4801215F
:100EE000026889030A430260006808400E900220ED
:100EF000FFF7F8FA00244020244F0594022601252C
:100F00000090029403946946019604953846FFF7D1
:100F100093FA802005940090029403946946019608
:100F200004953846FFF788FAE120400207900894BC
:100F3000069409940A940C940D940C20144C0B9074
:100F400006A92046FFF75AFBA068C000C008A060B1
:100F5000A068072149068843A06020686907884384
:100F600020602046FFF71CFB206828432060E069D2
:100F70008002C00FFBD0E0694002C00FF7D008200C
:100F800020620FB0F0BD000040100240000400508D
:100F90000038014010B50022084B08E0DC69240647
:100FA000E40FFBD004789C62521C92B2401C8A422F
:100FB000F4D3D8694006C00FFBD010BD0038014003
:100FC00010B50168074A114001225207914207D12A
:100FD0004168054C21600068FFF77CF82068804775
:100FE00010BD00000000FE2F10000020FFF718FFCA
:100FF000FFF784FB7D24E4002046FFF76FFBFBE74F
:10100000F7B582B016460F46FFF7D2F900240D4D12
:10101000009013E0002E05D0FFF7CAF90099401A9E
:10102000B04202D9002005B0F0BDE8698006C00FCB
:10103000F0D0686A02990855641CA4B2BC42F4D38B
:101040000120F0E70038014010B5FFF7A3FF10BD05
:101050000100000002000000040000000600000083
:10106000080000000A0000000C0000001000000052
:10107000200000004000000080000000000100008F
:101080000000000000000000000000000000000060
:101090000000000000000000000000000000000050
:1010A0000100000002000000030000000400000036
:1010B0000600000007000000080000000900000012
:1010C0000000000000000000000000000000000020
:1010D0000100000002000000030000000400000006
:1010E0000A0A0D2050726F6772616D6D696E67201C
:1010F000436F6D706C6574656420537563636573CD
:101100007366756C6C79210A0D2D2D2D2D2D2D2DCD
:101110002D2D2D2D2D2D2D2D2D2D2D2D2D2D2D2DFF
:101120002D2D2D2D2D2D2D2D2D0D0A204E616D6572
:101130003A200000541100080000002014000000B4
:10114000300D000868110008140000202C11000068
:10115000400D0008000000000024F4000000000022
:08116000000000000000000087
:04000005080000C12E
:00000001FF
