:020000040800F2
:1000000048110020DD000008350A0008310500080D
:1000100000000000000000000000000000000000E0
:100020000000000000000000000000001D0C00089F
:100030000000000000000000390A0008D30E00088C
:10004000EF00000800000000EF000008EF000008CB
:10005000EF000008EF000008EF000008EF000008C4
:1000600000000000EF000008EF000008EF000008AB
:10007000EF000008EF000008EF000008000000009B
:10008000EF0000080000000000000000EF00000882
:1000900000000000EF000008EF000008EF0000087B
:1000A000EF000008EF000008EF000008190F00083B
:1000B000A10F000800000000000000000000000088
:1000C0000348854600F08EF800480047C516000832
:1000D0004811002080F308887047000004488047DA
:1000E00004480047FEE7FEE7FEE7FEE7FEE7FEE71F
:1000F000DD0E0008C100000830B50B4601460020A7
:100100002022012409E00D46D5409D4205D31D461D
:100110009540491B2546954040191546521E002D15
:10012000F1DC30BDF0B51FB486B000200090019026
:1001300002900698069980B204900798090C020470
:100140000014114307900027089D099806913E4628
:100150003C4603900398A9B20204000C0390049853
:100160002D0C154348430021224600F02AF8C719F8
:10017000714110340E46402CECDB3846029A00F0F8
:1001800020F8009A019B8018009059410298019133
:10019000103002904028CCDB00980BB0F0BDD2B2FA
:1001A00001E00270401C491EFBD270470022F6E7B6
:1001B00010B513460A4604461946FFF7F0FF2046DD
:1001C00010BD10B5202A04DB0146203A91400020E2
:1001D00010BD914020239C1A0346E34019439040F0
:1001E00010BD0000064C0125064E05E0E36807CC73
:1001F0002B430C3C98471034B442F7D3FFF764FF0D
:100200002418000844180008F0B505460E460024DE
:10021000AF1905E029786D1CA0B200F0EBFE044692
:10022000BD42F7D3A0B2002100F0E4FE0446204610
:10023000002100F0DFFE04462046F0BD0449496974
:100240000122120402431143014A51617047000028
:100250000020024010B50346064A5269F824A24322
:100260001046CA00012424042243921C0243014C7C
:10027000626110BD0020024010B50849496901249F
:100280002143064C6161026000BF00BF00BFBFF3A5
:100290006F8F00BF00BF00BF436010BD0020024051
:1002A000F0B50246002314460D46114E766901272B
:1002B000BF043E430E4F7E6100BFEFF31086304611
:1002C00072B605E02E6826602D1D241D5E1CF3B25B
:1002D000402BF7D300BF064E366901273F043E404E
:1002E000002EF8D100BF80F3108800BFF0BD0000E1
:1002F0000020024070B5044600F0F4F8061901250C
:100300002D0405E000F0EEF8B04201D3032070BDEB
:100310001248006928400028F4D1104800691049AB
:1003200008400546481C0D490861002D03D00D48C2
:1003300045600120EBE700F0D5F8061905E000F074
:10034000D1F8B04201D30320E1E70448006901215C
:10035000890408400028F2D100BFD8E700200240FD
:10036000FA8300001800002001460120C006081A88
:10037000C00A7047F8B504460F4600BF234800780E
:10038000012801D10220F8BD01202049087000BFDA
:10039000002048607D20C000FFF7ACFF0646002E1D
:1003A0002CD1042060602068042808D16068FFF721
:1003B00045FF7D20C000FFF79DFF06461EE00020A0
:1003C000C0433860A5680DE029466068FFF742FF2A
:1003D0007D20C000FFF78EFF0646002E01D03D6055
:1003E00005E06D1CE168A0684018A842ECD800BF89
:1003F00007484069022188430549486100BF002041
:100400000249087000BF3046BDE700001800002018
:1004100000200240012007494969C2071143054AEB
:10042000516111464969C90FC907002900D0002050
:100430007047000000200240F0B51FB40646144685
:100440001D4600BF18480078012802D1022005B0DF
:10045000F0BD01201449087000BF002048607D20D5
:10046000C000FFF747FF0746002F15D1012E05D129
:1004700022462B460198FFF7FFFE03E02146019834
:10048000FFF70EFF7D20C000FFF734FF0746074847
:100490004069B0430549486100BF00200249087027
:1004A00000BF3846D3E700001800002000200240BB
:1004B000002009494969C90FC90700290BD007491C
:1004C000054A91600649916011464969C90FC907FB
:1004D000002900D001207047002002402301674519
:1004E000AB89EFCD01480068704700000000002094
:1004F00002480068401C0149086070470000002065
:1005000070B5094C7D25ED0029462046FFF7F4FD26
:10051000401E06494861002088610520086100BF2F
:100520000720086170BD00000024F40000E000E036
:1005300000BFFEE7FEB504460D46194801900027AE
:1005400000200090002628E028460199FFF7D4FDFE
:100550003030C2B238467F1C225428460199FFF73A
:10056000CBFD0D460A210198FFF7C6FD0190781ECC
:10057000205C302801D1012000E0002000990029F2
:1005800001D1012100E000210840002801D000270E
:1005900002E00098401C0090761C0A2ED4D3FEBDC9
:1005A00000CA9A3BF0B502460B4600266AE00124D9
:1005B000B44019682140002963D05868012802D04E
:1005C0005868022815D1986894680D464D436F000D
:1005D000ED19AC430D464D4345432C43946000BF99
:1005E000D86854688C430D4645432C43546000BF83
:1005F00000BF1869D4680D464D436F00ED19AC4338
:100600000D464D4345432C43D46000BF5868022833
:1006100029D1FF2911D85869146A0D464D434D431D
:100620004D432F017D1BAC430D464D434D434D4380
:1006300045432C43146200BF15E05F69080A40433C
:100640000C0A60430C0A60430401241A506AA04358
:100650000C0A64430D0A6C430D0A6C437C4320432F
:10066000506200BF00BF586814680D464D436F00CC
:10067000ED19AC430D464D4345432C43146000BF78
:1006800000BF761C1868F040002890D1F0BD000033
:1006900008B50549496B0143034A51631146496B4B
:1006A0000140009100BF08BD0010024070B5044633
:1006B0007D25ED0029462046FFF71EFD401E04491A
:1006C0004861002088610520086100BF70BD0000FE
:1006D00000E000E010B5044600F0DAF92060206880
:1006E00000F0ACF96060606800F0BEF9A06010BD79
:1006F000F8B504460025032C2BD100BF16484069ED
:100700002040210408432104401A17D0012804D0B6
:10071000022806D0032810D109E000F0B9F90546F7
:1007200016E000F01DF8012800D10C4D10E000F09B
:1007300021F8012800D1C5030AE000BF00F0A8F9A4
:10074000074600F07BF9064600F08EF9054600BF2B
:1007500000BF2846F8BD0000401002400024F4000D
:1007600003480068012189020840800A70470000A0
:10077000001002400248C06902210840400870474A
:10078000401002400248C0687021084070470000D5
:10079000001002400348C0687F2109020840000A97
:1007A00070470000001002400149086070470000D7
:1007B0000400002041680922D2029143416081680F
:1007C0002A2291438160704710B5014600221348E8
:1007D00081420ED101208003114B1B6B0343104C4F
:1007E000236300BF00BF23461B6B8343236300BF0B
:1007F00012E00C4881420ED101204004084BDB6A14
:100800000343074CE36200BF00BF2346DB6A834318
:10081000E36200BF00E00122104610BD0038014035
:100820000010024000440040016801225207914339
:1008300001607047016801221143016070478168BF
:100840000122114381607047016820221143016039
:1008500070470000F0B585B005460C46012700261C
:10086000284600F06DF8002841D12169A0680843AE
:1008700061690843E169084329681E4A1140084339
:100880002860E068696803221203914301436960AC
:1008900000BFA069A968121191430143A96000BF7C
:1008A0001548854204D10320FFF722FF064606E0E3
:1008B0001248854203D101A8FFF70CFF039E002ECA
:1008C0000CD06068002809D000276068009031468D
:1008D0002846E369226800F041F800BF2068E96A11
:1008E0000909090182B21143E96200BF00BF38461D
:1008F00005B0F0BDF369FFEF00380140004400404F
:100900000146C869012292051040800D70470146DA
:10091000C86920221040400970470146C86940223A
:100920001040800970470146C869012252051040F5
:10093000400D70470146C86980221040C0097047C9
:1009400001460868C007C00F012250405040704760
:10095000014608682022104040097047FFB583B067
:10096000054614460C9E0B2C2DD80121C903069870
:10097000884219D12006800D144A11580498FFF7B7
:10098000BBFB40007108401831460190FFF7B4FBF3
:1009900087B20F48384002903807400F0299084349
:1009A00002900298E8600EE02006800D074A115878
:1009B0000498FFF7A1FB7108401831460190FFF73A
:1009C0009BFB80B2E86007B0F0BD00004017000854
:1009D000F0FF0000826807235B069A434B061A4328
:1009E000826070478268D200D2084B071A43826047
:1009F000704781627047000008B501460A4A1269D3
:100A0000009200BF0846421C002A00D0401C07E0AC
:100A1000054A126901231B041A40002A00D0401E17
:100A20000028F5D108BD000000E000E010B500F09E
:100A3000F7F810BD00BFFEE770470000014600BF99
:100A4000074880680F22120210401040000A800000
:100A5000044A105CC206D20E0846D040704700001F
:100A60000010024070170008014600BF0648806869
:100A7000072212031040000B8000044A105CC206DB
:100A8000D20E0846D040704700100240B017000850
:100A900070B500BF114880683821084000280BD08D
:100AA000082802D0102806D101E00D4C12E000F019
:100AB0001BF804460EE000BF084800680721C90281
:100AC0000840C10A01258D4029460648FFF714FB5E
:100AD000044600BF00BF204670BD00000010024069
:100AE00000127A000024F400FEB500BF1348C0686D
:100AF0008007800F01900198022802D0032804D1BA
:100B000001E00F4C03E00F4C01E00D4C00BF00BFB3
:100B100000BF0A48C068400F451CFFF733FE0009BC
:100B2000471CFFF737FE604339460090FFF7E4FAB1
:100B300006462946FFF7E0FAFEBD0000001002401D
:100B40000024F40000127A00F7B582B004460E4685
:100B500000250020306001216846049A00F0BCFDA9
:100B60000746012F56D168460078182812D006DCB7
:100B7000012809D0022809D004281DD109E0412804
:100B800017D0612818D115E0802517E00125AD02A6
:100B900014E013E001216846049A00F09DFD01284D
:100BA00005D168460078182801D1022500E0002709
:100BB00004E000BF002701E0002700BF00BF684637
:100BC00000782070802D25D3281D81B2A01C049AA6
:100BD00000F082FD0746012F1BD1A178E078FF22AB
:100BE0005040814202D00025002713E0281D205CE0
:100BF00000020190681D215C0198081801902946A7
:100C0000201DFFF701FB0199884203D00025002732
:100C100000E000253560384605B0F0BD70470000A3
:100C20001FB5002001900290039000901DA000F0DD
:100C3000C5F8684600F0FEF90446002C1CD128488F
:100C400000F0BCF8274800F0B9F801A80099FFF7B8
:100C500071FC25A000F0B2F801A800F0AFF825A0C3
:100C600000F0ACF826A000F0A9F800F009FD72B67B
:100C7000294800F00FFD14E0052C03D127A000F057
:100C80009DF80EE0042C03D134A000F097F808E0A2
:100C9000022C03D138A000F091F802E03CA000F053
:100CA0008DF81FBD57616974696E6720666F722089
:100CB0007468652066696C6520746F2062652073B6
:100CC000656E74202E2E2E20287072657373202777
:100CD000612720746F2061626F7274290A0D000011
:100CE000D0170008FE0800200A0D2053697A653AE3
:100CF000200000002042797465730D0A0000000096
:100D00002D2D2D2D2D2D2D2D2D2D2D2D2D2D2D2D13
:100D10002D2D2D0A00000000002800080A0A0D549D
:100D2000686520696D6167652073697A65206973FC
:100D300020686967686572207468616E20746865F0
:100D400020616C6C6F776564207370616365206DE2
:100D5000656D6F7279210A0D000000000A0A0D56B8
:100D60006572696669636174696F6E206661696C3A
:100D70006564210A0D0000000D0A0A41626F727459
:100D8000656420627920757365722E0A0D0000007B
:100D90000A0D4661696C656420746F207265636535
:100DA000697665207468652066696C65210A0D00A6
:100DB00001B50121684600F0BBFC08BD70B50546D1
:100DC000002401E0601C84B2285D0028FAD121468D
:100DD000284600F0ADFC70BD70B502460C460021FF
:100DE000002000231578302D3FD15578782D02D082
:100DF0005578582D39D102212BE0555C412D02DB6D
:100E0000555C462D0BDD555C612D02DB555C662D76
:100E100005DD555C302D19DB555C392D16DC555C34
:100E2000302D05DB555C392D02DC555C303D0AE088
:100E3000555C412D05DB555C462D02DC555C373D8C
:100E400001E0555C573D1E01AB1901E0002005E0B3
:100E5000491C0B2902D2555C002DCED100BF555C38
:100E6000002D35D12360012032E02CE0555C002DAF
:100E700002D12360012025E0555C6B2D02D0555C2A
:100E80004B2D05D1002903D09B022360012019E0DE
:100E9000555C6D2D02D0555C4D2D05D1002903D038
:100EA0001B05236001200DE0555C302D08DB555CEF
:100EB000392D05DC0A255D43565C303EAB1901E057
:100EC000002004E0491C0B2901D20128CED100BF2B
:100ED00070BD00B5FFF70CFB00BD00000120C0068F
:100EE000014988607047000000ED00E008B51B2054
:100EF00000F08AF90748C069009004210098084072
:100F0000002805D000BF04200249086200BF00BFCE
:100F100008BD00000038014010B500241148FFF75B
:100F2000F6FC00281AD00F48FFF712FD002815D054
:100F300000BF0C48406AC0B204460B4801880088D4
:100F4000401C094A1080094844541046008808494A
:100F5000884205DB00201146088001E0FFF7C6FF4C
:100F600010BD0000003801400C00002034000020BB
:100F70009808000008B51C2000F046F90748C06931
:100F80000090042100980840002805D000BF0420EC
:100F90000249086200BF00BF08BD000000440040D5
:100FA00010B500241048FFF7B2FC002819D00E48F5
:100FB000FFF7CEFC002814D000BF0B48406AC0B237
:100FC00004460A4801880088401C084A10800848E6
:100FD000445410460088322805DB00201146088062
:100FE00001E0FFF7C7FF10BD004400400E000020E5
:100FF000CC08002010B503460C461946E21DF93214
:1010000000BF49005200FF2001301040002800D0EE
:10101000491C012000040840002801D00448414038
:101020000120000410400028EBD088B210BD000061
:1010300021100000F0B58DB0064600200B900990FD
:10104000089001905E485F490860AEE000270020EC
:101050000A90A3E05C4A0CA95C48FFF775FD0128E3
:1010600070D1002009900C98002807D002280BD1DD
:101070000620FFF79DFE0220019078E00620FFF792
:1010800097FE01200A9072E050488078F9B28842B9
:1010900003D01520FFF78CFE68E0002F53D14B489A
:1010A0000079002847D00025484C241D05E022780F
:1010B00028466D1C46490A54641C2078002801D03B
:1010C000402DF4D3002228466D1C41490A540025C6
:1010D000641C05E0227828466D1C03A90A54641C90
:1010E0002078202801D0102DF4D3002228466D1C32
:1010F00003A90A5407A903A8FFF76EFE3549306813
:1011000088420BD918200290012102A800F010FBA0
:10111000012102A800F00CFB052001903B2128488A
:1011200000F066F9079830600620FFF741FE432083
:10113000FFF73EFE17E00620FFF73AFE01200A9077
:101140000B9014E015E02149091D1E480C9A006817
:1011500000F0D1F81B4800680C9940181949086044
:101160000620FFF725FE7F1C0120089000BF00BF6E
:1011700013E00898002802D00998401C09900998AB
:10118000052806D91820FFF713FE1820FFF710FED8
:1011900002E04320FFF70CFE00BF00BF0A980028C2
:1011A00003D10198002800D154E70B98002803D1FF
:1011B0000198002800D149E701980DB0F0BD00006A
:1011C0000028000810000020881300003E090020BD
:1011D000FE08002001D80100F8B582B28BB2040CE1
:1011E0000D0C10465843002126465E43370C36044A
:1011F0008019794116466E43370C360480197941BF
:1012000026466E438919F8BD002815DBC206D20EAA
:1012100001219140094A116000BF00BF00BFBFF328
:101220004F8F00BF00BF00BF00BF00BF00BFBFF3B4
:101230006F8F00BF00BF00BF7047000080E100E07B
:10124000002809DB00BF00BFC206D20E0121914079
:10125000024A116000BF00BF7047000000E100E0DB
:1012600010B5002819DB1A4A03231B02D218830881
:101270009B00D2588307DC0EFF23A3409A438B07C1
:101280001B0E8407E40EA3401A43114B03242402CF
:101290001B198408A4001A5118E00E4A03071B0FFB
:1012A000083B9B089B00D2588307DC0EFF23A3401A
:1012B0009A438B071B0E8407E40EA3401A43054B89
:1012C0000407240F083CA408A4001A5110BD000014
:1012D00000E100E01CED00E002E008C8121F08C1B8
:1012E000002AFAD170477047002001E001C1121FA7
:1012F000002AFBD17047F7B592B00D46174600247F
:101300001298049000BF002600200190002F01D108
:1013100015B0F0BD7807400F002803D0F808C000D2
:101320000746083700245EE0E0002E5CE000401C29
:10133000285C00020643E000801C285C0004064391
:10134000E000C01C285C00060643E000001D285C8D
:101350000190E000401D285C0002019908430190C3
:10136000E000801D285C0004019908430190E00022
:10137000C01D285C0006019908430190FF2101313E
:101380000198FFF729FFFF23013300220E930D92EE
:101390000F9110901A460D9BFEF7C4FEFF230133F8
:1013A00000220A9309920B910C901A46099BFEF7B2
:1013B000B9FEFF230133002206930592079108909E
:1013C0001A46059BFEF7AEFE002280190B465341DC
:1013D00003930290039B029A049800F029F8049862
:1013E00008300490641CF808A0429DD800BF8FE725
:1013F00070B586B005460C460020019000262846B0
:10140000FEF7B2FF0646FFF753F80220029004965B
:10141000059401A902A8FEF7ADFF002804D0FEF74D
:10142000F9FF002006B070BDFEF7F4FF0120F9E7D8
:1014300070B5044615461E46FFF73AF82A4633466D
:1014400021460120FEF7F8FF002803D0FEF7E2FF57
:10145000002070BDFEF7DEFF0120FAE708B501208D
:101460000F49096801430E4A11601146096801409D
:10147000009100BF00BF000709494039C96B014313
:10148000074A403AD1631146C96B0140009100BF41
:1014900000BF00F007F8FFF733F800F053F808BD7D
:1014A0004010024010B500BF24480068FF21013100
:1014B00008432249086000BF00BF00BF1F48006802
:1014C000012189020840800A0028F6D000201B492B
:1014D00089680F22120291430143184A916000BFAC
:1014E00000BF11468968C908C9000143916000BF67
:1014F00000BF00BF11488068382108400028F8D19B
:1015000000BF0E49896807221203914301430B4A29
:10151000916000BF0A48FFF7C9F80948FFF744F98E
:1015200003200004054940314969020C914382B20D
:101530001143024A4032516100BF10BD0010024009
:101540000024F40000B58FB0202107A8FEF72EFE7E
:10155000182101A8FEF72AFE0120800336490968F8
:101560000143354A1160114609680140009100BFEE
:1015700000BF0220FFF78CF840200190022002906B
:10158000002003900490012005900020069001A9FE
:101590002A48FFF707F880200190022002900020DF
:1015A00003900490012005900020069001A9234893
:1015B000FEF7F8FF00211B20FFF752FE1B20FFF76C
:1015C0003FFE00200790E120400208900020099093
:1015D0000A900B900C200C9000200D900E9007A903
:1015E0001748FFF737F900211548FFF7FBF90021ED
:1015F0001348FFF7EFF91248FFF716F91048FFF705
:10160000D9F80F48FFF716F900BF0D48FFF78BF91F
:101610000028FAD00A48FFF773F90028F5D000BF78
:1016200008200749086200BF0846FFF70DF9044883
:10163000FFF705F90FB000BD401002400004005054
:101640000038014070B504460D46002600BF0CE08E
:1016500000BF0A48FFF76EF90028FAD02178641C11
:101660000648FFF7C6F9701C86B2AE42F0DB00BF39
:101670000248FFF752F90028FAD070BD0038014047
:1016800010B51C20FFF7C0FD0148FFF79DF810BD05
:101690000044004010B50446206808490840012174
:1016A0004907884208D16068054908602068FEF74C
:1016B00011FD03480068804710BD00000000FE2FA8
:1016C00014000020FFF7CAFEFFF7B0F903E07D2009
:1016D000C000FFF791F9FAE7F8B506460F46144641
:1016E00000200090FEF7FEFE0090002519E009E0C2
:1016F000002C05D0FEF7F6FE0099401AA04201D951
:101700000020F8BD00BF0948C069202108404009F9
:101710000028EDD000BF0548406AC0B27055681C73
:1017200085B2BD42E3DB0120EBE700000038014059
:1017300070B504460D4629462046FFF783FF70BD6D
:10174000010000000200000004000000060000008C
:10175000080000000A0000000C000000100000005B
:101760002000000040000000800000000001000098
:101770000000000000000000000000000000000069
:101780000000000000000000000000000000000059
:10179000010000000200000003000000040000003F
:1017A000060000000700000008000000090000001B
:1017B0000000000000000000000000000000000029
:1017C000010000000200000003000000040000000F
:1017D0000A0A0D2050726F6772616D6D696E672025
:1017E000436F6D706C6574656420537563636573D6
:1017F0007366756C6C79210A0D2D2D2D2D2D2D2DD7
:101800002D2D2D2D2D2D2D2D2D2D2D2D2D2D2D2D08
:101810002D2D2D2D2D2D2D2D2D0D0A204E616D657B
:101820003A200000441800080000002018000000C2
:10183000D81200085C1800081800002030110000C1
:10184000E8120008000000000024F400000000007E
:0C1850000000000000000000000000008C
:04000005080000C12E
:00000001FF
